{
  "contractName": "DGlovo",
  "abi": [
    {
      "inputs": [
        {
          "internalType": "uint256",
          "name": "total",
          "type": "uint256"
        }
      ],
      "stateMutability": "nonpayable",
      "type": "constructor"
    },
    {
      "anonymous": false,
      "inputs": [
        {
          "indexed": true,
          "internalType": "address",
          "name": "owner",
          "type": "address"
        },
        {
          "indexed": true,
          "internalType": "address",
          "name": "spender",
          "type": "address"
        },
        {
          "indexed": false,
          "internalType": "uint256",
          "name": "value",
          "type": "uint256"
        }
      ],
      "name": "Approval",
      "type": "event"
    },
    {
      "anonymous": false,
      "inputs": [
        {
          "indexed": true,
          "internalType": "address",
          "name": "from",
          "type": "address"
        },
        {
          "indexed": true,
          "internalType": "address",
          "name": "to",
          "type": "address"
        },
        {
          "indexed": false,
          "internalType": "uint256",
          "name": "value",
          "type": "uint256"
        }
      ],
      "name": "Transfer",
      "type": "event"
    },
    {
      "inputs": [],
      "name": "decimals",
      "outputs": [
        {
          "internalType": "uint8",
          "name": "",
          "type": "uint8"
        }
      ],
      "stateMutability": "view",
      "type": "function",
      "constant": true
    },
    {
      "inputs": [],
      "name": "lastId",
      "outputs": [
        {
          "internalType": "uint256",
          "name": "",
          "type": "uint256"
        }
      ],
      "stateMutability": "view",
      "type": "function",
      "constant": true
    },
    {
      "inputs": [],
      "name": "name",
      "outputs": [
        {
          "internalType": "string",
          "name": "",
          "type": "string"
        }
      ],
      "stateMutability": "view",
      "type": "function",
      "constant": true
    },
    {
      "inputs": [
        {
          "internalType": "uint256",
          "name": "",
          "type": "uint256"
        }
      ],
      "name": "orderids",
      "outputs": [
        {
          "internalType": "uint256",
          "name": "",
          "type": "uint256"
        }
      ],
      "stateMutability": "view",
      "type": "function",
      "constant": true
    },
    {
      "inputs": [
        {
          "internalType": "uint256",
          "name": "",
          "type": "uint256"
        }
      ],
      "name": "orders",
      "outputs": [
        {
          "internalType": "string",
          "name": "petition",
          "type": "string"
        },
        {
          "internalType": "uint256",
          "name": "creationTime",
          "type": "uint256"
        },
        {
          "internalType": "address",
          "name": "requester",
          "type": "address"
        },
        {
          "internalType": "address",
          "name": "worker",
          "type": "address"
        },
        {
          "internalType": "uint256",
          "name": "timeLimit",
          "type": "uint256"
        },
        {
          "internalType": "bool",
          "name": "completed",
          "type": "bool"
        },
        {
          "internalType": "uint256",
          "name": "price",
          "type": "uint256"
        },
        {
          "internalType": "uint256",
          "name": "lockedAmount",
          "type": "uint256"
        }
      ],
      "stateMutability": "view",
      "type": "function",
      "constant": true
    },
    {
      "inputs": [],
      "name": "stakeAmount",
      "outputs": [
        {
          "internalType": "uint256",
          "name": "",
          "type": "uint256"
        }
      ],
      "stateMutability": "view",
      "type": "function",
      "constant": true
    },
    {
      "inputs": [],
      "name": "symbol",
      "outputs": [
        {
          "internalType": "string",
          "name": "",
          "type": "string"
        }
      ],
      "stateMutability": "view",
      "type": "function",
      "constant": true
    },
    {
      "inputs": [],
      "name": "totalSupply",
      "outputs": [
        {
          "internalType": "uint256",
          "name": "",
          "type": "uint256"
        }
      ],
      "stateMutability": "view",
      "type": "function",
      "constant": true
    },
    {
      "inputs": [
        {
          "internalType": "address",
          "name": "tokenOwner",
          "type": "address"
        }
      ],
      "name": "balanceOf",
      "outputs": [
        {
          "internalType": "uint256",
          "name": "",
          "type": "uint256"
        }
      ],
      "stateMutability": "view",
      "type": "function",
      "constant": true
    },
    {
      "inputs": [
        {
          "internalType": "address",
          "name": "receiver",
          "type": "address"
        },
        {
          "internalType": "uint256",
          "name": "numTokens",
          "type": "uint256"
        }
      ],
      "name": "transfer",
      "outputs": [
        {
          "internalType": "bool",
          "name": "",
          "type": "bool"
        }
      ],
      "stateMutability": "nonpayable",
      "type": "function"
    },
    {
      "inputs": [
        {
          "internalType": "address",
          "name": "delegate",
          "type": "address"
        },
        {
          "internalType": "uint256",
          "name": "numTokens",
          "type": "uint256"
        }
      ],
      "name": "approve",
      "outputs": [
        {
          "internalType": "bool",
          "name": "",
          "type": "bool"
        }
      ],
      "stateMutability": "nonpayable",
      "type": "function"
    },
    {
      "inputs": [
        {
          "internalType": "address",
          "name": "owner",
          "type": "address"
        },
        {
          "internalType": "address",
          "name": "delegate",
          "type": "address"
        }
      ],
      "name": "allowance",
      "outputs": [
        {
          "internalType": "uint256",
          "name": "",
          "type": "uint256"
        }
      ],
      "stateMutability": "view",
      "type": "function",
      "constant": true
    },
    {
      "inputs": [
        {
          "internalType": "address",
          "name": "owner",
          "type": "address"
        },
        {
          "internalType": "address",
          "name": "buyer",
          "type": "address"
        },
        {
          "internalType": "uint256",
          "name": "numTokens",
          "type": "uint256"
        }
      ],
      "name": "transferFrom",
      "outputs": [
        {
          "internalType": "bool",
          "name": "",
          "type": "bool"
        }
      ],
      "stateMutability": "nonpayable",
      "type": "function"
    },
    {
      "inputs": [],
      "name": "lockStake",
      "outputs": [
        {
          "internalType": "bool",
          "name": "",
          "type": "bool"
        }
      ],
      "stateMutability": "nonpayable",
      "type": "function"
    },
    {
      "inputs": [
        {
          "internalType": "address",
          "name": "stakeOwner",
          "type": "address"
        }
      ],
      "name": "lockedAmountOf",
      "outputs": [
        {
          "internalType": "uint256",
          "name": "",
          "type": "uint256"
        }
      ],
      "stateMutability": "view",
      "type": "function",
      "constant": true
    },
    {
      "inputs": [],
      "name": "unlockStake",
      "outputs": [
        {
          "internalType": "bool",
          "name": "",
          "type": "bool"
        }
      ],
      "stateMutability": "nonpayable",
      "type": "function"
    },
    {
      "inputs": [
        {
          "internalType": "uint256",
          "name": "amount",
          "type": "uint256"
        }
      ],
      "name": "mint",
      "outputs": [
        {
          "internalType": "bool",
          "name": "",
          "type": "bool"
        }
      ],
      "stateMutability": "nonpayable",
      "type": "function"
    },
    {
      "inputs": [
        {
          "internalType": "string",
          "name": "petition",
          "type": "string"
        },
        {
          "internalType": "uint256",
          "name": "timeLimit",
          "type": "uint256"
        },
        {
          "internalType": "uint256",
          "name": "price",
          "type": "uint256"
        }
      ],
      "name": "createOrder",
      "outputs": [],
      "stateMutability": "nonpayable",
      "type": "function"
    },
    {
      "inputs": [
        {
          "internalType": "uint256",
          "name": "orderId",
          "type": "uint256"
        }
      ],
      "name": "assignOrder",
      "outputs": [],
      "stateMutability": "nonpayable",
      "type": "function"
    },
    {
      "inputs": [
        {
          "internalType": "uint256",
          "name": "orderId",
          "type": "uint256"
        }
      ],
      "name": "completeOrder",
      "outputs": [],
      "stateMutability": "nonpayable",
      "type": "function"
    }
  ],
  "bytecode": "0x60806040523480156200001157600080fd5b506040516200232c3803806200232c8339818101604052810190620000379190620000b8565b60008081905550678ac7230489e8000060018190555080600581905550600554600260003373ffffffffffffffffffffffffffffffffffffffff1673ffffffffffffffffffffffffffffffffffffffff168152602001908152602001600020819055505062000108565b600081519050620000b281620000ee565b92915050565b600060208284031215620000cb57600080fd5b6000620000db84828501620000a1565b91505092915050565b6000819050919050565b620000f981620000e4565b81146200010557600080fd5b50565b61221480620001186000396000f3fe608060405234801561001057600080fd5b506004361061012c5760003560e01c8063a0712d68116100ad578063b8fc59ba11610071578063b8fc59ba14610386578063bb9fe6bf146103a2578063c1292cc3146103c0578063dd62ed3e146103de578063e1c98d8c1461040e5761012c565b8063a0712d68146102b7578063a85c38ef146102e7578063a9059cbb1461031e578063b3c58eec1461034e578063b6adaaff1461036a5761012c565b806357ac09f9116100f457806357ac09f9146101eb57806360c7dc471461021b57806370a08231146102395780638b9d68991461026957806395d89b41146102995761012c565b806306fdde0314610131578063095ea7b31461014f57806318160ddd1461017f57806323b872dd1461019d578063313ce567146101cd575b600080fd5b61013961042c565b6040516101469190611e65565b60405180910390f35b61016960048036038101906101649190611d09565b610465565b6040516101769190611e4a565b60405180910390f35b610187610557565b6040516101949190611f0c565b60405180910390f35b6101b760048036038101906101b29190611cba565b610561565b6040516101c49190611e4a565b60405180910390f35b6101d56108e1565b6040516101e29190611f27565b60405180910390f35b61020560048036038101906102009190611dac565b6108e6565b6040516102129190611f0c565b60405180910390f35b61022361090a565b6040516102309190611f0c565b60405180910390f35b610253600480360381019061024e9190611c55565b610910565b6040516102609190611f0c565b60405180910390f35b610283600480360381019061027e9190611c55565b6109a3565b6040516102909190611f0c565b60405180910390f35b6102a16109ec565b6040516102ae9190611e65565b60405180910390f35b6102d160048036038101906102cc9190611dac565b610a25565b6040516102de9190611e4a565b60405180910390f35b61030160048036038101906102fc9190611dac565b610ae0565b604051610315989796959493929190611e87565b60405180910390f35b61033860048036038101906103339190611d09565b610bfd565b6040516103459190611e4a565b60405180910390f35b61036860048036038101906103639190611dac565b610de4565b005b610384600480360381019061037f9190611dac565b610fa8565b005b6103a0600480360381019061039b9190611d45565b611362565b005b6103aa61161b565b6040516103b79190611e4a565b60405180910390f35b6103c8611788565b6040516103d59190611f0c565b60405180910390f35b6103f860048036038101906103f39190611c7e565b61178e565b6040516104059190611f0c565b60405180910390f35b610416611815565b6040516104239190611e4a565b60405180910390f35b6040518060400160405280600681526020017f44476c6f766f000000000000000000000000000000000000000000000000000081525081565b600081600360003373ffffffffffffffffffffffffffffffffffffffff1673ffffffffffffffffffffffffffffffffffffffff16815260200190815260200160002060008573ffffffffffffffffffffffffffffffffffffffff1673ffffffffffffffffffffffffffffffffffffffff168152602001908152602001600020819055508273ffffffffffffffffffffffffffffffffffffffff163373ffffffffffffffffffffffffffffffffffffffff167f8c5be1e5ebec7d5bd14f71427d1e84f3dd0314c0f7b2291e5b200ac8c7c3b925846040516105459190611f0c565b60405180910390a36001905092915050565b6000600554905090565b6000600260008573ffffffffffffffffffffffffffffffffffffffff1673ffffffffffffffffffffffffffffffffffffffff168152602001908152602001600020548211156105af57600080fd5b600360008573ffffffffffffffffffffffffffffffffffffffff1673ffffffffffffffffffffffffffffffffffffffff16815260200190815260200160002060003373ffffffffffffffffffffffffffffffffffffffff1673ffffffffffffffffffffffffffffffffffffffff1681526020019081526020016000205482111561063857600080fd5b61068a82600260008773ffffffffffffffffffffffffffffffffffffffff1673ffffffffffffffffffffffffffffffffffffffff16815260200190815260200160002054611a8190919063ffffffff16565b600260008673ffffffffffffffffffffffffffffffffffffffff1673ffffffffffffffffffffffffffffffffffffffff1681526020019081526020016000208190555061075c82600360008773ffffffffffffffffffffffffffffffffffffffff1673ffffffffffffffffffffffffffffffffffffffff16815260200190815260200160002060003373ffffffffffffffffffffffffffffffffffffffff1673ffffffffffffffffffffffffffffffffffffffff16815260200190815260200160002054611a8190919063ffffffff16565b600360008673ffffffffffffffffffffffffffffffffffffffff1673ffffffffffffffffffffffffffffffffffffffff16815260200190815260200160002060003373ffffffffffffffffffffffffffffffffffffffff1673ffffffffffffffffffffffffffffffffffffffff1681526020019081526020016000208190555061082e82600260008673ffffffffffffffffffffffffffffffffffffffff1673ffffffffffffffffffffffffffffffffffffffff16815260200190815260200160002054611ace90919063ffffffff16565b600260008573ffffffffffffffffffffffffffffffffffffffff1673ffffffffffffffffffffffffffffffffffffffff168152602001908152602001600020819055508273ffffffffffffffffffffffffffffffffffffffff168473ffffffffffffffffffffffffffffffffffffffff167fddf252ad1be2c89b69c2b068fc378daa952ba7f163c4a11628f55a4df523b3ef846040516108ce9190611f0c565b60405180910390a3600190509392505050565b601281565b600781815481106108f657600080fd5b906000526020600020016000915090505481565b60015481565b6000600460008373ffffffffffffffffffffffffffffffffffffffff1673ffffffffffffffffffffffffffffffffffffffff16815260200190815260200160002054600260008473ffffffffffffffffffffffffffffffffffffffff1673ffffffffffffffffffffffffffffffffffffffff1681526020019081526020016000205461099c9190611fbf565b9050919050565b6000600460008373ffffffffffffffffffffffffffffffffffffffff1673ffffffffffffffffffffffffffffffffffffffff168152602001908152602001600020549050919050565b6040518060400160405280600381526020017f44474c000000000000000000000000000000000000000000000000000000000081525081565b6000610a3c82600554611ace90919063ffffffff16565b600581905550610a9482600260003373ffffffffffffffffffffffffffffffffffffffff1673ffffffffffffffffffffffffffffffffffffffff16815260200190815260200160002054611ace90919063ffffffff16565b600260003373ffffffffffffffffffffffffffffffffffffffff1673ffffffffffffffffffffffffffffffffffffffff1681526020019081526020016000208190555060019050919050565b6006602052806000526040600020600091509050806000018054610b03906120e0565b80601f0160208091040260200160405190810160405280929190818152602001828054610b2f906120e0565b8015610b7c5780601f10610b5157610100808354040283529160200191610b7c565b820191906000526020600020905b815481529060010190602001808311610b5f57829003601f168201915b5050505050908060010154908060020160009054906101000a900473ffffffffffffffffffffffffffffffffffffffff16908060030160009054906101000a900473ffffffffffffffffffffffffffffffffffffffff16908060040154908060050160009054906101000a900460ff16908060060154908060070154905088565b6000600260003373ffffffffffffffffffffffffffffffffffffffff1673ffffffffffffffffffffffffffffffffffffffff16815260200190815260200160002054821115610c4b57600080fd5b610c9d82600260003373ffffffffffffffffffffffffffffffffffffffff1673ffffffffffffffffffffffffffffffffffffffff16815260200190815260200160002054611a8190919063ffffffff16565b600260003373ffffffffffffffffffffffffffffffffffffffff1673ffffffffffffffffffffffffffffffffffffffff16815260200190815260200160002081905550610d3282600260008673ffffffffffffffffffffffffffffffffffffffff1673ffffffffffffffffffffffffffffffffffffffff16815260200190815260200160002054611ace90919063ffffffff16565b600260008573ffffffffffffffffffffffffffffffffffffffff1673ffffffffffffffffffffffffffffffffffffffff168152602001908152602001600020819055508273ffffffffffffffffffffffffffffffffffffffff163373ffffffffffffffffffffffffffffffffffffffff167fddf252ad1be2c89b69c2b068fc378daa952ba7f163c4a11628f55a4df523b3ef84604051610dd29190611f0c565b60405180910390a36001905092915050565b80600073ffffffffffffffffffffffffffffffffffffffff166006600083815260200190815260200160002060030160009054906101000a900473ffffffffffffffffffffffffffffffffffffffff1673ffffffffffffffffffffffffffffffffffffffff1614610e5457600080fd5b33600154600460008373ffffffffffffffffffffffffffffffffffffffff1673ffffffffffffffffffffffffffffffffffffffff168152602001908152602001600020541015610ea357600080fd5b610f0b6006600085815260200190815260200160002060070154600460003373ffffffffffffffffffffffffffffffffffffffff1673ffffffffffffffffffffffffffffffffffffffff16815260200190815260200160002054611a8190919063ffffffff16565b600460003373ffffffffffffffffffffffffffffffffffffffff1673ffffffffffffffffffffffffffffffffffffffff16815260200190815260200160002081905550336006600085815260200190815260200160002060030160006101000a81548173ffffffffffffffffffffffffffffffffffffffff021916908373ffffffffffffffffffffffffffffffffffffffff160217905550505050565b803373ffffffffffffffffffffffffffffffffffffffff166006600083815260200190815260200160002060020160009054906101000a900473ffffffffffffffffffffffffffffffffffffffff1673ffffffffffffffffffffffffffffffffffffffff161461101757600080fd5b61107f6006600084815260200190815260200160002060070154600260003373ffffffffffffffffffffffffffffffffffffffff1673ffffffffffffffffffffffffffffffffffffffff16815260200190815260200160002054611ace90919063ffffffff16565b600260003373ffffffffffffffffffffffffffffffffffffffff1673ffffffffffffffffffffffffffffffffffffffff1681526020019081526020016000208190555061112a6006600084815260200190815260200160002060070154600460003373ffffffffffffffffffffffffffffffffffffffff1673ffffffffffffffffffffffffffffffffffffffff16815260200190815260200160002054611ace90919063ffffffff16565b600460003373ffffffffffffffffffffffffffffffffffffffff1673ffffffffffffffffffffffffffffffffffffffff1681526020019081526020016000208190555060016006600084815260200190815260200160002060050160006101000a81548160ff0219169083151502179055506112046006600084815260200190815260200160002060060154600260003373ffffffffffffffffffffffffffffffffffffffff1673ffffffffffffffffffffffffffffffffffffffff16815260200190815260200160002054611a8190919063ffffffff16565b600260003373ffffffffffffffffffffffffffffffffffffffff1673ffffffffffffffffffffffffffffffffffffffff168152602001908152602001600020819055506112e56006600084815260200190815260200160002060060154600260006006600087815260200190815260200160002060030160009054906101000a900473ffffffffffffffffffffffffffffffffffffffff1673ffffffffffffffffffffffffffffffffffffffff1673ffffffffffffffffffffffffffffffffffffffff16815260200190815260200160002054611ace90919063ffffffff16565b600260006006600086815260200190815260200160002060030160009054906101000a900473ffffffffffffffffffffffffffffffffffffffff1673ffffffffffffffffffffffffffffffffffffffff1673ffffffffffffffffffffffffffffffffffffffff168152602001908152602001600020819055505050565b3360015480600260008473ffffffffffffffffffffffffffffffffffffffff1673ffffffffffffffffffffffffffffffffffffffff1681526020019081526020016000205410156113b257600080fd5b828060015410156113c257600080fd5b611416600154600260003373ffffffffffffffffffffffffffffffffffffffff1673ffffffffffffffffffffffffffffffffffffffff16815260200190815260200160002054611a8190919063ffffffff16565b600260003373ffffffffffffffffffffffffffffffffffffffff1673ffffffffffffffffffffffffffffffffffffffff168152602001908152602001600020819055506040518061010001604052808781526020014281526020013373ffffffffffffffffffffffffffffffffffffffff168152602001600073ffffffffffffffffffffffffffffffffffffffff168152602001868152602001600015158152602001858152602001600154815250600660008054815260200190815260200160002060008201518160000190805190602001906114f5929190611b20565b506020820151816001015560408201518160020160006101000a81548173ffffffffffffffffffffffffffffffffffffffff021916908373ffffffffffffffffffffffffffffffffffffffff16021790555060608201518160030160006101000a81548173ffffffffffffffffffffffffffffffffffffffff021916908373ffffffffffffffffffffffffffffffffffffffff1602179055506080820151816004015560a08201518160050160006101000a81548160ff02191690831515021790555060c0820151816006015560e0820151816007015590505060076000549080600181540180825580915050600190039060005260206000200160009091909190915055600160008082825461160c9190611fbf565b92505081905550505050505050565b600080600460003373ffffffffffffffffffffffffffffffffffffffff1673ffffffffffffffffffffffffffffffffffffffff168152602001908152602001600020541161166857600080fd5b6116f9600460003373ffffffffffffffffffffffffffffffffffffffff1673ffffffffffffffffffffffffffffffffffffffff16815260200190815260200160002054600260003373ffffffffffffffffffffffffffffffffffffffff1673ffffffffffffffffffffffffffffffffffffffff16815260200190815260200160002054611ace90919063ffffffff16565b600260003373ffffffffffffffffffffffffffffffffffffffff1673ffffffffffffffffffffffffffffffffffffffff168152602001908152602001600020819055506000600460003373ffffffffffffffffffffffffffffffffffffffff1673ffffffffffffffffffffffffffffffffffffffff168152602001908152602001600020819055506001905090565b60005481565b6000600360008473ffffffffffffffffffffffffffffffffffffffff1673ffffffffffffffffffffffffffffffffffffffff16815260200190815260200160002060008373ffffffffffffffffffffffffffffffffffffffff1673ffffffffffffffffffffffffffffffffffffffff16815260200190815260200160002054905092915050565b600033600460008273ffffffffffffffffffffffffffffffffffffffff1673ffffffffffffffffffffffffffffffffffffffff168152602001908152602001600020546001546118659190612015565b600260008373ffffffffffffffffffffffffffffffffffffffff1673ffffffffffffffffffffffffffffffffffffffff1681526020019081526020016000205410156118b057600080fd5b600154600460003373ffffffffffffffffffffffffffffffffffffffff1673ffffffffffffffffffffffffffffffffffffffff16815260200190815260200160002054106118fd57600080fd5b6000600460003373ffffffffffffffffffffffffffffffffffffffff1673ffffffffffffffffffffffffffffffffffffffff1681526020019081526020016000205460015461194c9190612015565b90506119a081600460003373ffffffffffffffffffffffffffffffffffffffff1673ffffffffffffffffffffffffffffffffffffffff16815260200190815260200160002054611ace90919063ffffffff16565b600460003373ffffffffffffffffffffffffffffffffffffffff1673ffffffffffffffffffffffffffffffffffffffff16815260200190815260200160002081905550611a3581600260003373ffffffffffffffffffffffffffffffffffffffff1673ffffffffffffffffffffffffffffffffffffffff16815260200190815260200160002054611a8190919063ffffffff16565b600260003373ffffffffffffffffffffffffffffffffffffffff1673ffffffffffffffffffffffffffffffffffffffff1681526020019081526020016000208190555060019250505090565b600082821115611aba577f4e487b7100000000000000000000000000000000000000000000000000000000600052600160045260246000fd5b8183611ac69190612015565b905092915050565b6000808284611add9190611fbf565b905083811015611b16577f4e487b7100000000000000000000000000000000000000000000000000000000600052600160045260246000fd5b8091505092915050565b828054611b2c906120e0565b90600052602060002090601f016020900481019282611b4e5760008555611b95565b82601f10611b6757805160ff1916838001178555611b95565b82800160010185558215611b95579182015b82811115611b94578251825591602001919060010190611b79565b5b509050611ba29190611ba6565b5090565b5b80821115611bbf576000816000905550600101611ba7565b5090565b6000611bd6611bd184611f73565b611f42565b905082815260208101848484011115611bee57600080fd5b611bf984828561209e565b509392505050565b600081359050611c10816121b0565b92915050565b600082601f830112611c2757600080fd5b8135611c37848260208601611bc3565b91505092915050565b600081359050611c4f816121c7565b92915050565b600060208284031215611c6757600080fd5b6000611c7584828501611c01565b91505092915050565b60008060408385031215611c9157600080fd5b6000611c9f85828601611c01565b9250506020611cb085828601611c01565b9150509250929050565b600080600060608486031215611ccf57600080fd5b6000611cdd86828701611c01565b9350506020611cee86828701611c01565b9250506040611cff86828701611c40565b9150509250925092565b60008060408385031215611d1c57600080fd5b6000611d2a85828601611c01565b9250506020611d3b85828601611c40565b9150509250929050565b600080600060608486031215611d5a57600080fd5b600084013567ffffffffffffffff811115611d7457600080fd5b611d8086828701611c16565b9350506020611d9186828701611c40565b9250506040611da286828701611c40565b9150509250925092565b600060208284031215611dbe57600080fd5b6000611dcc84828501611c40565b91505092915050565b611dde81612049565b82525050565b611ded8161205b565b82525050565b6000611dfe82611fa3565b611e088185611fae565b9350611e188185602086016120ad565b611e218161219f565b840191505092915050565b611e3581612087565b82525050565b611e4481612091565b82525050565b6000602082019050611e5f6000830184611de4565b92915050565b60006020820190508181036000830152611e7f8184611df3565b905092915050565b6000610100820190508181036000830152611ea2818b611df3565b9050611eb1602083018a611e2c565b611ebe6040830189611dd5565b611ecb6060830188611dd5565b611ed86080830187611e2c565b611ee560a0830186611de4565b611ef260c0830185611e2c565b611eff60e0830184611e2c565b9998505050505050505050565b6000602082019050611f216000830184611e2c565b92915050565b6000602082019050611f3c6000830184611e3b565b92915050565b6000604051905081810181811067ffffffffffffffff82111715611f6957611f68612170565b5b8060405250919050565b600067ffffffffffffffff821115611f8e57611f8d612170565b5b601f19601f8301169050602081019050919050565b600081519050919050565b600082825260208201905092915050565b6000611fca82612087565b9150611fd583612087565b9250827fffffffffffffffffffffffffffffffffffffffffffffffffffffffffffffffff0382111561200a57612009612112565b5b828201905092915050565b600061202082612087565b915061202b83612087565b92508282101561203e5761203d612112565b5b828203905092915050565b600061205482612067565b9050919050565b60008115159050919050565b600073ffffffffffffffffffffffffffffffffffffffff82169050919050565b6000819050919050565b600060ff82169050919050565b82818337600083830152505050565b60005b838110156120cb5780820151818401526020810190506120b0565b838111156120da576000848401525b50505050565b600060028204905060018216806120f857607f821691505b6020821081141561210c5761210b612141565b5b50919050565b7f4e487b7100000000000000000000000000000000000000000000000000000000600052601160045260246000fd5b7f4e487b7100000000000000000000000000000000000000000000000000000000600052602260045260246000fd5b7f4e487b7100000000000000000000000000000000000000000000000000000000600052604160045260246000fd5b6000601f19601f8301169050919050565b6121b981612049565b81146121c457600080fd5b50565b6121d081612087565b81146121db57600080fd5b5056fea2646970667358221220310c34603986ec43782e6b8118ad5a2d717aeed3ae294a0b53ba938aada35c4b64736f6c63430008000033",
  "immutableReferences": {},
  "source": "pragma solidity 0.8.0;\n\nimport \"./interfaces/IERC20.sol\";\n\ncontract DGlovo is IERC20{\n\n  uint public lastId;\n\n  struct Order {\n    string petition;\n    uint creationTime;\n    address requester;\n    address worker;\n    uint timeLimit;\n    bool completed;\n    uint price;\n    uint256 lockedAmount;\n  }\n\n  string public constant name = \"DGlovo\";\n  string public constant symbol = \"DGL\";\n  uint8 public constant decimals = 18;\n\n  uint256 public stakeAmount;\n\n  mapping(address => uint256) balances;\n\n  mapping(address => mapping (address => uint256)) allowed;\n\n  mapping(address => uint256) locked;\n\n  uint256 totalSupply_;\n\n  using SafeMath for uint256;\n\n  mapping(uint => Order) public orders;\n\n  uint[] public orderids;\n\n  // Constructor\n  constructor(uint256 total) {\n      lastId = 0;\n      stakeAmount = 10000000000000000000;\n      totalSupply_ = total;\n    \tbalances[msg.sender] = totalSupply_;\n  }\n\n  function totalSupply() public view virtual override returns (uint256) {\n  \treturn totalSupply_;\n  }\n\n  function balanceOf(address tokenOwner) public view virtual override returns (uint) {\n    return balances[tokenOwner] + locked[tokenOwner];\n  }\n\n  function transfer(address receiver, uint numTokens) public virtual override returns (bool) {\n    require(numTokens <= balances[msg.sender]);\n    balances[msg.sender] = balances[msg.sender].sub(numTokens);\n    balances[receiver] = balances[receiver].add(numTokens);\n    emit Transfer(msg.sender, receiver, numTokens);\n    return true;\n  }\n\n  function approve(address delegate, uint numTokens) public virtual override returns (bool) {\n    allowed[msg.sender][delegate] = numTokens;\n    Approval(msg.sender, delegate, numTokens);\n    return true;\n  }\n\n  function allowance(address owner, address delegate) public virtual override view returns (uint) {\n    return allowed[owner][delegate];\n  }\n\n  function transferFrom(address owner, address buyer, uint numTokens) public virtual override returns (bool) {\n    require(numTokens <= balances[owner]);\n    require(numTokens <= allowed[owner][msg.sender]);\n\n    balances[owner] = balances[owner].sub(numTokens);\n    allowed[owner][msg.sender] = allowed[owner][msg.sender].sub(numTokens);\n    balances[buyer] = balances[buyer].add(numTokens);\n    Transfer(owner, buyer, numTokens);\n    return true;\n  }\n\n  function lockStake() hasEnoughToStake(msg.sender) public returns (bool) {\n    require(locked[msg.sender] < stakeAmount);\n\n    uint quantity = stakeAmount - locked[msg.sender];\n    locked[msg.sender] = locked[msg.sender].add(quantity);\n    balances[msg.sender] = balances[msg.sender].sub(quantity);\n    return true;\n  }\n\n  function lockedAmountOf(address stakeOwner) public view virtual returns (uint) {\n    return locked[stakeOwner];\n  }\n\n  function unlockStake() public returns (bool) {\n    require(locked[msg.sender] > 0);\n\n    balances[msg.sender] = balances[msg.sender].add(locked[msg.sender]);\n    locked[msg.sender] = 0;\n    return true;\n  }\n\n  function mint(uint256 amount) public returns (bool) {\n    totalSupply_ = totalSupply_.add(amount);\n    balances[msg.sender] = balances[msg.sender].add(amount);\n    return true;\n  }\n\n  modifier isRequester(uint orderId) { require(orders[orderId].requester == msg.sender); _; }\n\n  modifier hasEnoughToStake(address stakeOwner) { require(balances[stakeOwner] >= (stakeAmount - locked[stakeOwner])); _; }\n\n  modifier hasMoreThan(address user, uint256 value) { require(balances[user] >= value); _; }\n\n  modifier isLessThanStake(uint256 value) { require(stakeAmount >= value); _; }\n\n  modifier isStaking(address stakeOwner) { require(locked[stakeOwner] >= stakeAmount); _; }\n\n  modifier hasNoWorker(uint orderId) { require(orders[orderId].worker == address(0)); _; }\n\n  function createOrder(string memory petition, uint256 timeLimit, uint256 price) hasMoreThan(msg.sender, stakeAmount) isLessThanStake(price) public {\n    balances[msg.sender] = balances[msg.sender].sub(stakeAmount);\n    orders[lastId] = Order({\n        petition: petition,\n        creationTime: block.timestamp,\n        requester: msg.sender,\n        worker: address(0),\n        timeLimit: timeLimit,\n        completed: false,\n        price: price,\n        lockedAmount: stakeAmount\n      });\n    orderids.push(lastId);\n    lastId += 1;\n  }\n\n  function assignOrder(uint orderId) hasNoWorker(orderId) isStaking(msg.sender) public {\n    locked[msg.sender] = locked[msg.sender].sub(orders[orderId].lockedAmount);\n    orders[orderId].worker = msg.sender;\n  }\n\n  function completeOrder(uint orderId) isRequester(orderId) public {\n    balances[msg.sender] = balances[msg.sender].add(orders[orderId].lockedAmount);\n    locked[msg.sender] = locked[msg.sender].add(orders[orderId].lockedAmount);\n    orders[orderId].completed = true;\n    balances[msg.sender] = balances[msg.sender].sub(orders[orderId].price);\n    balances[orders[orderId].worker] = balances[orders[orderId].worker].add(orders[orderId].price);\n  }\n}\n\nlibrary SafeMath {\n    function sub(uint256 a, uint256 b) internal pure returns (uint256) {\n      assert(b <= a);\n      return a - b;\n    }\n\n    function add(uint256 a, uint256 b) internal pure returns (uint256) {\n      uint256 c = a + b;\n      assert(c >= a);\n      return c;\n    }\n}\n",
  "sourcePath": "/home/guillem/Documents/projects/DGlovo/contracts/DGlovo.sol",
  "compiler": {
    "name": "solc",
    "version": "0.8.0+commit.c7dfd78e.Emscripten.clang"
  },
  "schemaVersion": "3.4.1",
  "updatedAt": "2021-07-01T10:34:05.788Z",
  "networkType": "ethereum",
  "devdoc": {
    "kind": "dev",
    "methods": {
      "totalSupply()": {
        "details": "Returns the amount of tokens in existence."
      }
    },
    "version": 1
  },
  "userdoc": {
    "kind": "user",
    "methods": {},
    "version": 1
  }
}