{
  "contractName": "DGlovo",
  "abi": [
    {
      "inputs": [
        {
          "internalType": "uint256",
          "name": "total",
          "type": "uint256"
        }
      ],
      "stateMutability": "nonpayable",
      "type": "constructor"
    },
    {
      "anonymous": false,
      "inputs": [
        {
          "indexed": true,
          "internalType": "address",
          "name": "owner",
          "type": "address"
        },
        {
          "indexed": true,
          "internalType": "address",
          "name": "spender",
          "type": "address"
        },
        {
          "indexed": false,
          "internalType": "uint256",
          "name": "value",
          "type": "uint256"
        }
      ],
      "name": "Approval",
      "type": "event"
    },
    {
      "anonymous": false,
      "inputs": [
        {
          "indexed": true,
          "internalType": "address",
          "name": "from",
          "type": "address"
        },
        {
          "indexed": true,
          "internalType": "address",
          "name": "to",
          "type": "address"
        },
        {
          "indexed": false,
          "internalType": "uint256",
          "name": "value",
          "type": "uint256"
        }
      ],
      "name": "Transfer",
      "type": "event"
    },
    {
      "inputs": [],
      "name": "decimals",
      "outputs": [
        {
          "internalType": "uint8",
          "name": "",
          "type": "uint8"
        }
      ],
      "stateMutability": "view",
      "type": "function",
      "constant": true
    },
    {
      "inputs": [],
      "name": "lastId",
      "outputs": [
        {
          "internalType": "uint256",
          "name": "",
          "type": "uint256"
        }
      ],
      "stateMutability": "view",
      "type": "function",
      "constant": true
    },
    {
      "inputs": [],
      "name": "name",
      "outputs": [
        {
          "internalType": "string",
          "name": "",
          "type": "string"
        }
      ],
      "stateMutability": "view",
      "type": "function",
      "constant": true
    },
    {
      "inputs": [
        {
          "internalType": "uint256",
          "name": "",
          "type": "uint256"
        }
      ],
      "name": "orderids",
      "outputs": [
        {
          "internalType": "uint256",
          "name": "",
          "type": "uint256"
        }
      ],
      "stateMutability": "view",
      "type": "function",
      "constant": true
    },
    {
      "inputs": [
        {
          "internalType": "uint256",
          "name": "",
          "type": "uint256"
        }
      ],
      "name": "orders",
      "outputs": [
        {
          "internalType": "string",
          "name": "petition",
          "type": "string"
        },
        {
          "internalType": "uint256",
          "name": "creationTime",
          "type": "uint256"
        },
        {
          "internalType": "address",
          "name": "requester",
          "type": "address"
        },
        {
          "internalType": "address",
          "name": "worker",
          "type": "address"
        },
        {
          "internalType": "uint256",
          "name": "timeLimit",
          "type": "uint256"
        },
        {
          "internalType": "bool",
          "name": "completed",
          "type": "bool"
        },
        {
          "internalType": "uint256",
          "name": "price",
          "type": "uint256"
        }
      ],
      "stateMutability": "view",
      "type": "function",
      "constant": true
    },
    {
      "inputs": [],
      "name": "stakeAmount",
      "outputs": [
        {
          "internalType": "uint256",
          "name": "",
          "type": "uint256"
        }
      ],
      "stateMutability": "view",
      "type": "function",
      "constant": true
    },
    {
      "inputs": [],
      "name": "symbol",
      "outputs": [
        {
          "internalType": "string",
          "name": "",
          "type": "string"
        }
      ],
      "stateMutability": "view",
      "type": "function",
      "constant": true
    },
    {
      "inputs": [],
      "name": "totalSupply",
      "outputs": [
        {
          "internalType": "uint256",
          "name": "",
          "type": "uint256"
        }
      ],
      "stateMutability": "view",
      "type": "function",
      "constant": true
    },
    {
      "inputs": [
        {
          "internalType": "address",
          "name": "tokenOwner",
          "type": "address"
        }
      ],
      "name": "balanceOf",
      "outputs": [
        {
          "internalType": "uint256",
          "name": "",
          "type": "uint256"
        }
      ],
      "stateMutability": "view",
      "type": "function",
      "constant": true
    },
    {
      "inputs": [
        {
          "internalType": "address",
          "name": "receiver",
          "type": "address"
        },
        {
          "internalType": "uint256",
          "name": "numTokens",
          "type": "uint256"
        }
      ],
      "name": "transfer",
      "outputs": [
        {
          "internalType": "bool",
          "name": "",
          "type": "bool"
        }
      ],
      "stateMutability": "nonpayable",
      "type": "function"
    },
    {
      "inputs": [
        {
          "internalType": "address",
          "name": "delegate",
          "type": "address"
        },
        {
          "internalType": "uint256",
          "name": "numTokens",
          "type": "uint256"
        }
      ],
      "name": "approve",
      "outputs": [
        {
          "internalType": "bool",
          "name": "",
          "type": "bool"
        }
      ],
      "stateMutability": "nonpayable",
      "type": "function"
    },
    {
      "inputs": [
        {
          "internalType": "address",
          "name": "owner",
          "type": "address"
        },
        {
          "internalType": "address",
          "name": "delegate",
          "type": "address"
        }
      ],
      "name": "allowance",
      "outputs": [
        {
          "internalType": "uint256",
          "name": "",
          "type": "uint256"
        }
      ],
      "stateMutability": "view",
      "type": "function",
      "constant": true
    },
    {
      "inputs": [
        {
          "internalType": "address",
          "name": "owner",
          "type": "address"
        },
        {
          "internalType": "address",
          "name": "buyer",
          "type": "address"
        },
        {
          "internalType": "uint256",
          "name": "numTokens",
          "type": "uint256"
        }
      ],
      "name": "transferFrom",
      "outputs": [
        {
          "internalType": "bool",
          "name": "",
          "type": "bool"
        }
      ],
      "stateMutability": "nonpayable",
      "type": "function"
    },
    {
      "inputs": [],
      "name": "lockStake",
      "outputs": [
        {
          "internalType": "bool",
          "name": "",
          "type": "bool"
        }
      ],
      "stateMutability": "nonpayable",
      "type": "function"
    },
    {
      "inputs": [],
      "name": "unlockStake",
      "outputs": [
        {
          "internalType": "bool",
          "name": "",
          "type": "bool"
        }
      ],
      "stateMutability": "nonpayable",
      "type": "function"
    },
    {
      "inputs": [
        {
          "internalType": "uint256",
          "name": "amount",
          "type": "uint256"
        }
      ],
      "name": "mint",
      "outputs": [
        {
          "internalType": "bool",
          "name": "",
          "type": "bool"
        }
      ],
      "stateMutability": "nonpayable",
      "type": "function"
    },
    {
      "inputs": [
        {
          "internalType": "string",
          "name": "petition",
          "type": "string"
        }
      ],
      "name": "createOrder",
      "outputs": [],
      "stateMutability": "nonpayable",
      "type": "function"
    },
    {
      "inputs": [
        {
          "internalType": "uint256",
          "name": "orderId",
          "type": "uint256"
        }
      ],
      "name": "assignOrder",
      "outputs": [],
      "stateMutability": "nonpayable",
      "type": "function"
    },
    {
      "inputs": [
        {
          "internalType": "uint256",
          "name": "orderId",
          "type": "uint256"
        }
      ],
      "name": "completeOrder",
      "outputs": [],
      "stateMutability": "nonpayable",
      "type": "function"
    }
  ],
  "bytecode": "0x60806040523480156200001157600080fd5b5060405162001ba338038062001ba38339818101604052810190620000379190620000b1565b60008081905550600a60018190555080600581905550600554600260003373ffffffffffffffffffffffffffffffffffffffff1673ffffffffffffffffffffffffffffffffffffffff168152602001908152602001600020819055505062000101565b600081519050620000ab81620000e7565b92915050565b600060208284031215620000c457600080fd5b6000620000d4848285016200009a565b91505092915050565b6000819050919050565b620000f281620000dd565b8114620000fe57600080fd5b50565b611a9280620001116000396000f3fe608060405234801561001057600080fd5b50600436106101215760003560e01c806395d89b41116100ad578063b6adaaff11610071578063b6adaaff1461034a578063bb9fe6bf14610366578063c1292cc314610384578063dd62ed3e146103a2578063e1c98d8c146103d257610121565b806395d89b411461027a578063a0712d6814610298578063a85c38ef146102c8578063a9059cbb146102fe578063b3c58eec1461032e57610121565b806323b872dd116100f457806323b872dd146101ae578063313ce567146101de57806357ac09f9146101fc57806360c7dc471461022c57806370a082311461024a57610121565b806303b7c7641461012657806306fdde0314610142578063095ea7b31461016057806318160ddd14610190575b600080fd5b610140600480360381019061013b91906115f8565b6103f0565b005b61014a61059c565b60405161015791906116f2565b60405180910390f35b61017a600480360381019061017591906115bc565b6105d5565b60405161018791906116d7565b60405180910390f35b6101986106c7565b6040516101a5919061178a565b60405180910390f35b6101c860048036038101906101c3919061156d565b6106d1565b6040516101d591906116d7565b60405180910390f35b6101e6610a51565b6040516101f391906117a5565b60405180910390f35b61021660048036038101906102119190611639565b610a56565b604051610223919061178a565b60405180910390f35b610234610a7a565b604051610241919061178a565b60405180910390f35b610264600480360381019061025f9190611508565b610a80565b604051610271919061178a565b60405180910390f35b610282610b13565b60405161028f91906116f2565b60405180910390f35b6102b260048036038101906102ad9190611639565b610b4c565b6040516102bf91906116d7565b60405180910390f35b6102e260048036038101906102dd9190611639565b610c07565b6040516102f59796959493929190611714565b60405180910390f35b610318600480360381019061031391906115bc565b610d1e565b60405161032591906116d7565b60405180910390f35b61034860048036038101906103439190611639565b610f05565b005b610364600480360381019061035f9190611639565b610f5d565b005b61036e610fff565b60405161037b91906116d7565b60405180910390f35b61038c61116d565b604051610399919061178a565b60405180910390f35b6103bc60048036038101906103b79190611531565b611173565b6040516103c9919061178a565b60405180910390f35b6103da6111fa565b6040516103e791906116d7565b60405180910390f35b6040518060e001604052808281526020014281526020013373ffffffffffffffffffffffffffffffffffffffff168152602001600073ffffffffffffffffffffffffffffffffffffffff16815260200160648152602001600015158152602001600a815250600660008054815260200190815260200160002060008201518160000190805190602001906104859291906113d3565b506020820151816001015560408201518160020160006101000a81548173ffffffffffffffffffffffffffffffffffffffff021916908373ffffffffffffffffffffffffffffffffffffffff16021790555060608201518160030160006101000a81548173ffffffffffffffffffffffffffffffffffffffff021916908373ffffffffffffffffffffffffffffffffffffffff1602179055506080820151816004015560a08201518160050160006101000a81548160ff02191690831515021790555060c08201518160060155905050600760005490806001815401808255809150506001900390600052602060002001600090919091909150556001600080828254610592919061183d565b9250508190555050565b6040518060400160405280600681526020017f44476c6f766f000000000000000000000000000000000000000000000000000081525081565b600081600360003373ffffffffffffffffffffffffffffffffffffffff1673ffffffffffffffffffffffffffffffffffffffff16815260200190815260200160002060008573ffffffffffffffffffffffffffffffffffffffff1673ffffffffffffffffffffffffffffffffffffffff168152602001908152602001600020819055508273ffffffffffffffffffffffffffffffffffffffff163373ffffffffffffffffffffffffffffffffffffffff167f8c5be1e5ebec7d5bd14f71427d1e84f3dd0314c0f7b2291e5b200ac8c7c3b925846040516106b5919061178a565b60405180910390a36001905092915050565b6000600554905090565b6000600260008573ffffffffffffffffffffffffffffffffffffffff1673ffffffffffffffffffffffffffffffffffffffff1681526020019081526020016000205482111561071f57600080fd5b600360008573ffffffffffffffffffffffffffffffffffffffff1673ffffffffffffffffffffffffffffffffffffffff16815260200190815260200160002060003373ffffffffffffffffffffffffffffffffffffffff1673ffffffffffffffffffffffffffffffffffffffff168152602001908152602001600020548211156107a857600080fd5b6107fa82600260008773ffffffffffffffffffffffffffffffffffffffff1673ffffffffffffffffffffffffffffffffffffffff1681526020019081526020016000205461133490919063ffffffff16565b600260008673ffffffffffffffffffffffffffffffffffffffff1673ffffffffffffffffffffffffffffffffffffffff168152602001908152602001600020819055506108cc82600360008773ffffffffffffffffffffffffffffffffffffffff1673ffffffffffffffffffffffffffffffffffffffff16815260200190815260200160002060003373ffffffffffffffffffffffffffffffffffffffff1673ffffffffffffffffffffffffffffffffffffffff1681526020019081526020016000205461133490919063ffffffff16565b600360008673ffffffffffffffffffffffffffffffffffffffff1673ffffffffffffffffffffffffffffffffffffffff16815260200190815260200160002060003373ffffffffffffffffffffffffffffffffffffffff1673ffffffffffffffffffffffffffffffffffffffff1681526020019081526020016000208190555061099e82600260008673ffffffffffffffffffffffffffffffffffffffff1673ffffffffffffffffffffffffffffffffffffffff1681526020019081526020016000205461138190919063ffffffff16565b600260008573ffffffffffffffffffffffffffffffffffffffff1673ffffffffffffffffffffffffffffffffffffffff168152602001908152602001600020819055508273ffffffffffffffffffffffffffffffffffffffff168473ffffffffffffffffffffffffffffffffffffffff167fddf252ad1be2c89b69c2b068fc378daa952ba7f163c4a11628f55a4df523b3ef84604051610a3e919061178a565b60405180910390a3600190509392505050565b601281565b60078181548110610a6657600080fd5b906000526020600020016000915090505481565b60015481565b6000600460008373ffffffffffffffffffffffffffffffffffffffff1673ffffffffffffffffffffffffffffffffffffffff16815260200190815260200160002054600260008473ffffffffffffffffffffffffffffffffffffffff1673ffffffffffffffffffffffffffffffffffffffff16815260200190815260200160002054610b0c919061183d565b9050919050565b6040518060400160405280600381526020017f44474c000000000000000000000000000000000000000000000000000000000081525081565b6000610b638260055461138190919063ffffffff16565b600581905550610bbb82600260003373ffffffffffffffffffffffffffffffffffffffff1673ffffffffffffffffffffffffffffffffffffffff1681526020019081526020016000205461138190919063ffffffff16565b600260003373ffffffffffffffffffffffffffffffffffffffff1673ffffffffffffffffffffffffffffffffffffffff1681526020019081526020016000208190555060019050919050565b6006602052806000526040600020600091509050806000018054610c2a9061195e565b80601f0160208091040260200160405190810160405280929190818152602001828054610c569061195e565b8015610ca35780601f10610c7857610100808354040283529160200191610ca3565b820191906000526020600020905b815481529060010190602001808311610c8657829003601f168201915b5050505050908060010154908060020160009054906101000a900473ffffffffffffffffffffffffffffffffffffffff16908060030160009054906101000a900473ffffffffffffffffffffffffffffffffffffffff16908060040154908060050160009054906101000a900460ff16908060060154905087565b6000600260003373ffffffffffffffffffffffffffffffffffffffff1673ffffffffffffffffffffffffffffffffffffffff16815260200190815260200160002054821115610d6c57600080fd5b610dbe82600260003373ffffffffffffffffffffffffffffffffffffffff1673ffffffffffffffffffffffffffffffffffffffff1681526020019081526020016000205461133490919063ffffffff16565b600260003373ffffffffffffffffffffffffffffffffffffffff1673ffffffffffffffffffffffffffffffffffffffff16815260200190815260200160002081905550610e5382600260008673ffffffffffffffffffffffffffffffffffffffff1673ffffffffffffffffffffffffffffffffffffffff1681526020019081526020016000205461138190919063ffffffff16565b600260008573ffffffffffffffffffffffffffffffffffffffff1673ffffffffffffffffffffffffffffffffffffffff168152602001908152602001600020819055508273ffffffffffffffffffffffffffffffffffffffff163373ffffffffffffffffffffffffffffffffffffffff167fddf252ad1be2c89b69c2b068fc378daa952ba7f163c4a11628f55a4df523b3ef84604051610ef3919061178a565b60405180910390a36001905092915050565b336006600083815260200190815260200160002060030160006101000a81548173ffffffffffffffffffffffffffffffffffffffff021916908373ffffffffffffffffffffffffffffffffffffffff16021790555050565b803373ffffffffffffffffffffffffffffffffffffffff166006600083815260200190815260200160002060020160009054906101000a900473ffffffffffffffffffffffffffffffffffffffff1673ffffffffffffffffffffffffffffffffffffffff1614610fcc57600080fd5b60016006600084815260200190815260200160002060050160006101000a81548160ff0219169083151502179055505050565b6000600460003373ffffffffffffffffffffffffffffffffffffffff1673ffffffffffffffffffffffffffffffffffffffff1681526020019081526020016000205460001061104d57600080fd5b6110de600460003373ffffffffffffffffffffffffffffffffffffffff1673ffffffffffffffffffffffffffffffffffffffff16815260200190815260200160002054600260003373ffffffffffffffffffffffffffffffffffffffff1673ffffffffffffffffffffffffffffffffffffffff1681526020019081526020016000205461138190919063ffffffff16565b600260003373ffffffffffffffffffffffffffffffffffffffff1673ffffffffffffffffffffffffffffffffffffffff168152602001908152602001600020819055506000600460003373ffffffffffffffffffffffffffffffffffffffff1673ffffffffffffffffffffffffffffffffffffffff168152602001908152602001600020819055506001905090565b60005481565b6000600360008473ffffffffffffffffffffffffffffffffffffffff1673ffffffffffffffffffffffffffffffffffffffff16815260200190815260200160002060008373ffffffffffffffffffffffffffffffffffffffff1673ffffffffffffffffffffffffffffffffffffffff16815260200190815260200160002054905092915050565b6000600260003373ffffffffffffffffffffffffffffffffffffffff1673ffffffffffffffffffffffffffffffffffffffff16815260200190815260200160002054600154101561124a57600080fd5b600460003373ffffffffffffffffffffffffffffffffffffffff1673ffffffffffffffffffffffffffffffffffffffff1681526020019081526020016000205460001461129657600080fd5b6112ea600154600460003373ffffffffffffffffffffffffffffffffffffffff1673ffffffffffffffffffffffffffffffffffffffff1681526020019081526020016000205461138190919063ffffffff16565b600460003373ffffffffffffffffffffffffffffffffffffffff1673ffffffffffffffffffffffffffffffffffffffff168152602001908152602001600020819055506001905090565b60008282111561136d577f4e487b7100000000000000000000000000000000000000000000000000000000600052600160045260246000fd5b81836113799190611893565b905092915050565b6000808284611390919061183d565b9050838110156113c9577f4e487b7100000000000000000000000000000000000000000000000000000000600052600160045260246000fd5b8091505092915050565b8280546113df9061195e565b90600052602060002090601f0160209004810192826114015760008555611448565b82601f1061141a57805160ff1916838001178555611448565b82800160010185558215611448579182015b8281111561144757825182559160200191906001019061142c565b5b5090506114559190611459565b5090565b5b8082111561147257600081600090555060010161145a565b5090565b6000611489611484846117f1565b6117c0565b9050828152602081018484840111156114a157600080fd5b6114ac84828561191c565b509392505050565b6000813590506114c381611a2e565b92915050565b600082601f8301126114da57600080fd5b81356114ea848260208601611476565b91505092915050565b60008135905061150281611a45565b92915050565b60006020828403121561151a57600080fd5b6000611528848285016114b4565b91505092915050565b6000806040838503121561154457600080fd5b6000611552858286016114b4565b9250506020611563858286016114b4565b9150509250929050565b60008060006060848603121561158257600080fd5b6000611590868287016114b4565b93505060206115a1868287016114b4565b92505060406115b2868287016114f3565b9150509250925092565b600080604083850312156115cf57600080fd5b60006115dd858286016114b4565b92505060206115ee858286016114f3565b9150509250929050565b60006020828403121561160a57600080fd5b600082013567ffffffffffffffff81111561162457600080fd5b611630848285016114c9565b91505092915050565b60006020828403121561164b57600080fd5b6000611659848285016114f3565b91505092915050565b61166b816118c7565b82525050565b61167a816118d9565b82525050565b600061168b82611821565b611695818561182c565b93506116a581856020860161192b565b6116ae81611a1d565b840191505092915050565b6116c281611905565b82525050565b6116d18161190f565b82525050565b60006020820190506116ec6000830184611671565b92915050565b6000602082019050818103600083015261170c8184611680565b905092915050565b600060e082019050818103600083015261172e818a611680565b905061173d60208301896116b9565b61174a6040830188611662565b6117576060830187611662565b61176460808301866116b9565b61177160a0830185611671565b61177e60c08301846116b9565b98975050505050505050565b600060208201905061179f60008301846116b9565b92915050565b60006020820190506117ba60008301846116c8565b92915050565b6000604051905081810181811067ffffffffffffffff821117156117e7576117e66119ee565b5b8060405250919050565b600067ffffffffffffffff82111561180c5761180b6119ee565b5b601f19601f8301169050602081019050919050565b600081519050919050565b600082825260208201905092915050565b600061184882611905565b915061185383611905565b9250827fffffffffffffffffffffffffffffffffffffffffffffffffffffffffffffffff0382111561188857611887611990565b5b828201905092915050565b600061189e82611905565b91506118a983611905565b9250828210156118bc576118bb611990565b5b828203905092915050565b60006118d2826118e5565b9050919050565b60008115159050919050565b600073ffffffffffffffffffffffffffffffffffffffff82169050919050565b6000819050919050565b600060ff82169050919050565b82818337600083830152505050565b60005b8381101561194957808201518184015260208101905061192e565b83811115611958576000848401525b50505050565b6000600282049050600182168061197657607f821691505b6020821081141561198a576119896119bf565b5b50919050565b7f4e487b7100000000000000000000000000000000000000000000000000000000600052601160045260246000fd5b7f4e487b7100000000000000000000000000000000000000000000000000000000600052602260045260246000fd5b7f4e487b7100000000000000000000000000000000000000000000000000000000600052604160045260246000fd5b6000601f19601f8301169050919050565b611a37816118c7565b8114611a4257600080fd5b50565b611a4e81611905565b8114611a5957600080fd5b5056fea26469706673582212203c33f86862c616e1e94947fb552a3da4f0291e76c7101548410230db112ca13b64736f6c63430008000033",
  "immutableReferences": {},
  "source": "pragma solidity 0.8.0;\n\nimport \"./interfaces/IERC20.sol\";\n\ncontract DGlovo is IERC20{\n\n  uint public lastId;\n\n  struct Order {\n    string petition;\n    uint creationTime;\n    address requester;\n    address worker;\n    uint timeLimit;\n    bool completed;\n    uint price;\n  }\n\n  string public constant name = \"DGlovo\";\n  string public constant symbol = \"DGL\";\n  uint8 public constant decimals = 18;\n\n  uint256 public stakeAmount;\n\n  mapping(address => uint256) balances;\n\n  mapping(address => mapping (address => uint256)) allowed;\n\n  mapping(address => uint256) locked;\n\n  uint256 totalSupply_;\n\n  using SafeMath for uint256;\n\n  mapping(uint => Order) public orders;\n\n  uint[] public orderids;\n\n  // Constructor\n  constructor(uint256 total) {\n      lastId = 0;\n      stakeAmount = 10;\n      totalSupply_ = total;\n    \tbalances[msg.sender] = totalSupply_;\n  }\n\n  function totalSupply() public view virtual override returns (uint256) {\n  \treturn totalSupply_;\n  }\n\n  function balanceOf(address tokenOwner) public view virtual override returns (uint) {\n    return balances[tokenOwner] + locked[tokenOwner];\n  }\n\n  function transfer(address receiver, uint numTokens) public virtual override returns (bool) {\n    require(numTokens <= balances[msg.sender]);\n    balances[msg.sender] = balances[msg.sender].sub(numTokens);\n    balances[receiver] = balances[receiver].add(numTokens);\n    emit Transfer(msg.sender, receiver, numTokens);\n    return true;\n  }\n\n  function approve(address delegate, uint numTokens) public virtual override returns (bool) {\n    allowed[msg.sender][delegate] = numTokens;\n    Approval(msg.sender, delegate, numTokens);\n    return true;\n  }\n\n  function allowance(address owner, address delegate) public virtual override view returns (uint) {\n    return allowed[owner][delegate];\n  }\n\n  function transferFrom(address owner, address buyer, uint numTokens) public virtual override returns (bool) {\n    require(numTokens <= balances[owner]);\n    require(numTokens <= allowed[owner][msg.sender]);\n\n    balances[owner] = balances[owner].sub(numTokens);\n    allowed[owner][msg.sender] = allowed[owner][msg.sender].sub(numTokens);\n    balances[buyer] = balances[buyer].add(numTokens);\n    Transfer(owner, buyer, numTokens);\n    return true;\n  }\n\n  function lockStake() public returns (bool) {\n    require(stakeAmount >= balances[msg.sender]);\n    require(0 == locked[msg.sender]);\n\n    locked[msg.sender] = locked[msg.sender].add(stakeAmount);\n    return true;\n  }\n\n  function unlockStake() public returns (bool) {\n    require(0 < locked[msg.sender]);\n\n    balances[msg.sender] = balances[msg.sender].add(locked[msg.sender]);\n    locked[msg.sender] = 0;\n    return true;\n  }\n\n  function mint(uint256 amount) public returns (bool) {\n    totalSupply_ = totalSupply_.add(amount);\n    balances[msg.sender] = balances[msg.sender].add(amount);\n    return true;\n  }\n\n  modifier isRequester(uint orderId) { require(orders[orderId].requester == msg.sender); _; }\n\n  function createOrder(string memory petition) public {\n    orders[lastId] = Order({\n        petition: petition,\n        creationTime: block.timestamp,\n        requester: msg.sender,\n        worker: address(0),\n        timeLimit: 100,\n        completed: false,\n        price: 10\n      });\n    orderids.push(lastId);\n    lastId += 1;\n  }\n\n  function assignOrder(uint orderId) public {\n    orders[orderId].worker = msg.sender;\n    //TODO: pay some tokens\n  }\n\n  function completeOrder(uint orderId) isRequester(orderId) public {\n    orders[orderId].completed = true;\n    //TODO: return tokens to worker + payout\n  }\n}\n\nlibrary SafeMath {\n    function sub(uint256 a, uint256 b) internal pure returns (uint256) {\n      assert(b <= a);\n      return a - b;\n    }\n\n    function add(uint256 a, uint256 b) internal pure returns (uint256) {\n      uint256 c = a + b;\n      assert(c >= a);\n      return c;\n    }\n}\n",
  "sourcePath": "/home/guillem/Documents/projects/DGlovo/contracts/DGlovo.sol",
  "compiler": {
    "name": "solc",
    "version": "0.8.0+commit.c7dfd78e.Emscripten.clang"
  },
  "schemaVersion": "3.4.1",
  "updatedAt": "2021-06-15T10:26:02.283Z",
  "networkType": "ethereum",
  "devdoc": {
    "kind": "dev",
    "methods": {
      "totalSupply()": {
        "details": "Returns the amount of tokens in existence."
      }
    },
    "version": 1
  },
  "userdoc": {
    "kind": "user",
    "methods": {},
    "version": 1
  }
}