{
  "contractName": "DGlovo",
  "abi": [
    {
      "inputs": [
        {
          "internalType": "uint256",
          "name": "total",
          "type": "uint256"
        }
      ],
      "stateMutability": "nonpayable",
      "type": "constructor"
    },
    {
      "anonymous": false,
      "inputs": [
        {
          "indexed": true,
          "internalType": "address",
          "name": "owner",
          "type": "address"
        },
        {
          "indexed": true,
          "internalType": "address",
          "name": "spender",
          "type": "address"
        },
        {
          "indexed": false,
          "internalType": "uint256",
          "name": "value",
          "type": "uint256"
        }
      ],
      "name": "Approval",
      "type": "event"
    },
    {
      "anonymous": false,
      "inputs": [
        {
          "indexed": true,
          "internalType": "address",
          "name": "from",
          "type": "address"
        },
        {
          "indexed": true,
          "internalType": "address",
          "name": "to",
          "type": "address"
        },
        {
          "indexed": false,
          "internalType": "uint256",
          "name": "value",
          "type": "uint256"
        }
      ],
      "name": "Transfer",
      "type": "event"
    },
    {
      "inputs": [],
      "name": "decimals",
      "outputs": [
        {
          "internalType": "uint8",
          "name": "",
          "type": "uint8"
        }
      ],
      "stateMutability": "view",
      "type": "function",
      "constant": true
    },
    {
      "inputs": [],
      "name": "lastId",
      "outputs": [
        {
          "internalType": "uint256",
          "name": "",
          "type": "uint256"
        }
      ],
      "stateMutability": "view",
      "type": "function",
      "constant": true
    },
    {
      "inputs": [],
      "name": "name",
      "outputs": [
        {
          "internalType": "string",
          "name": "",
          "type": "string"
        }
      ],
      "stateMutability": "view",
      "type": "function",
      "constant": true
    },
    {
      "inputs": [
        {
          "internalType": "uint256",
          "name": "",
          "type": "uint256"
        }
      ],
      "name": "orderids",
      "outputs": [
        {
          "internalType": "uint256",
          "name": "",
          "type": "uint256"
        }
      ],
      "stateMutability": "view",
      "type": "function",
      "constant": true
    },
    {
      "inputs": [
        {
          "internalType": "uint256",
          "name": "",
          "type": "uint256"
        }
      ],
      "name": "orders",
      "outputs": [
        {
          "internalType": "string",
          "name": "petition",
          "type": "string"
        },
        {
          "internalType": "uint256",
          "name": "creationTime",
          "type": "uint256"
        },
        {
          "internalType": "address",
          "name": "requester",
          "type": "address"
        },
        {
          "internalType": "address",
          "name": "worker",
          "type": "address"
        },
        {
          "internalType": "uint256",
          "name": "timeLimit",
          "type": "uint256"
        },
        {
          "internalType": "bool",
          "name": "completed",
          "type": "bool"
        },
        {
          "internalType": "uint256",
          "name": "price",
          "type": "uint256"
        },
        {
          "internalType": "uint256",
          "name": "lockedAmount",
          "type": "uint256"
        }
      ],
      "stateMutability": "view",
      "type": "function",
      "constant": true
    },
    {
      "inputs": [],
      "name": "stakeAmount",
      "outputs": [
        {
          "internalType": "uint256",
          "name": "",
          "type": "uint256"
        }
      ],
      "stateMutability": "view",
      "type": "function",
      "constant": true
    },
    {
      "inputs": [],
      "name": "symbol",
      "outputs": [
        {
          "internalType": "string",
          "name": "",
          "type": "string"
        }
      ],
      "stateMutability": "view",
      "type": "function",
      "constant": true
    },
    {
      "inputs": [],
      "name": "totalSupply",
      "outputs": [
        {
          "internalType": "uint256",
          "name": "",
          "type": "uint256"
        }
      ],
      "stateMutability": "view",
      "type": "function",
      "constant": true
    },
    {
      "inputs": [
        {
          "internalType": "address",
          "name": "tokenOwner",
          "type": "address"
        }
      ],
      "name": "balanceOf",
      "outputs": [
        {
          "internalType": "uint256",
          "name": "",
          "type": "uint256"
        }
      ],
      "stateMutability": "view",
      "type": "function",
      "constant": true
    },
    {
      "inputs": [
        {
          "internalType": "address",
          "name": "receiver",
          "type": "address"
        },
        {
          "internalType": "uint256",
          "name": "numTokens",
          "type": "uint256"
        }
      ],
      "name": "transfer",
      "outputs": [
        {
          "internalType": "bool",
          "name": "",
          "type": "bool"
        }
      ],
      "stateMutability": "nonpayable",
      "type": "function"
    },
    {
      "inputs": [
        {
          "internalType": "address",
          "name": "delegate",
          "type": "address"
        },
        {
          "internalType": "uint256",
          "name": "numTokens",
          "type": "uint256"
        }
      ],
      "name": "approve",
      "outputs": [
        {
          "internalType": "bool",
          "name": "",
          "type": "bool"
        }
      ],
      "stateMutability": "nonpayable",
      "type": "function"
    },
    {
      "inputs": [
        {
          "internalType": "address",
          "name": "owner",
          "type": "address"
        },
        {
          "internalType": "address",
          "name": "delegate",
          "type": "address"
        }
      ],
      "name": "allowance",
      "outputs": [
        {
          "internalType": "uint256",
          "name": "",
          "type": "uint256"
        }
      ],
      "stateMutability": "view",
      "type": "function",
      "constant": true
    },
    {
      "inputs": [
        {
          "internalType": "address",
          "name": "owner",
          "type": "address"
        },
        {
          "internalType": "address",
          "name": "buyer",
          "type": "address"
        },
        {
          "internalType": "uint256",
          "name": "numTokens",
          "type": "uint256"
        }
      ],
      "name": "transferFrom",
      "outputs": [
        {
          "internalType": "bool",
          "name": "",
          "type": "bool"
        }
      ],
      "stateMutability": "nonpayable",
      "type": "function"
    },
    {
      "inputs": [],
      "name": "lockStake",
      "outputs": [
        {
          "internalType": "bool",
          "name": "",
          "type": "bool"
        }
      ],
      "stateMutability": "nonpayable",
      "type": "function"
    },
    {
      "inputs": [
        {
          "internalType": "address",
          "name": "stakeOwner",
          "type": "address"
        }
      ],
      "name": "lockedAmountOf",
      "outputs": [
        {
          "internalType": "uint256",
          "name": "",
          "type": "uint256"
        }
      ],
      "stateMutability": "view",
      "type": "function",
      "constant": true
    },
    {
      "inputs": [],
      "name": "unlockStake",
      "outputs": [
        {
          "internalType": "bool",
          "name": "",
          "type": "bool"
        }
      ],
      "stateMutability": "nonpayable",
      "type": "function"
    },
    {
      "inputs": [
        {
          "internalType": "uint256",
          "name": "amount",
          "type": "uint256"
        }
      ],
      "name": "mint",
      "outputs": [
        {
          "internalType": "bool",
          "name": "",
          "type": "bool"
        }
      ],
      "stateMutability": "nonpayable",
      "type": "function"
    },
    {
      "inputs": [
        {
          "internalType": "string",
          "name": "petition",
          "type": "string"
        },
        {
          "internalType": "uint256",
          "name": "timeLimit",
          "type": "uint256"
        },
        {
          "internalType": "uint256",
          "name": "price",
          "type": "uint256"
        }
      ],
      "name": "createOrder",
      "outputs": [],
      "stateMutability": "nonpayable",
      "type": "function"
    },
    {
      "inputs": [
        {
          "internalType": "uint256",
          "name": "orderId",
          "type": "uint256"
        }
      ],
      "name": "assignOrder",
      "outputs": [],
      "stateMutability": "nonpayable",
      "type": "function"
    },
    {
      "inputs": [
        {
          "internalType": "uint256",
          "name": "orderId",
          "type": "uint256"
        }
      ],
      "name": "completeOrder",
      "outputs": [],
      "stateMutability": "nonpayable",
      "type": "function"
    },
    {
      "inputs": [
        {
          "internalType": "uint256",
          "name": "orderId",
          "type": "uint256"
        }
      ],
      "name": "cancelOrder",
      "outputs": [],
      "stateMutability": "nonpayable",
      "type": "function"
    },
    {
      "inputs": [
        {
          "internalType": "uint256",
          "name": "orderId",
          "type": "uint256"
        }
      ],
      "name": "uncompletedOrder",
      "outputs": [],
      "stateMutability": "nonpayable",
      "type": "function"
    }
  ],
  "bytecode": "0x60806040523480156200001157600080fd5b5060405162002a6338038062002a638339818101604052810190620000379190620000b8565b60008081905550678ac7230489e8000060018190555080600581905550600554600260003373ffffffffffffffffffffffffffffffffffffffff1673ffffffffffffffffffffffffffffffffffffffff168152602001908152602001600020819055505062000108565b600081519050620000b281620000ee565b92915050565b600060208284031215620000cb57600080fd5b6000620000db84828501620000a1565b91505092915050565b6000819050919050565b620000f981620000e4565b81146200010557600080fd5b50565b61294b80620001186000396000f3fe608060405234801561001057600080fd5b50600436106101425760003560e01c8063a0712d68116100b8578063b8fc59ba1161007c578063b8fc59ba146103b8578063bb9fe6bf146103d4578063c1292cc3146103f2578063d12d25a214610410578063dd62ed3e1461042c578063e1c98d8c1461045c57610142565b8063a0712d68146102e9578063a85c38ef14610319578063a9059cbb14610350578063b3c58eec14610380578063b6adaaff1461039c57610142565b8063514fcac71161010a578063514fcac71461020157806357ac09f91461021d57806360c7dc471461024d57806370a082311461026b5780638b9d68991461029b57806395d89b41146102cb57610142565b806306fdde0314610147578063095ea7b31461016557806318160ddd1461019557806323b872dd146101b3578063313ce567146101e3575b600080fd5b61014f61047a565b60405161015c9190612542565b60405180910390f35b61017f600480360381019061017a91906123e6565b6104b3565b60405161018c9190612527565b60405180910390f35b61019d6105a5565b6040516101aa91906125e9565b60405180910390f35b6101cd60048036038101906101c89190612397565b6105af565b6040516101da9190612527565b60405180910390f35b6101eb61092f565b6040516101f89190612604565b60405180910390f35b61021b60048036038101906102169190612489565b610934565b005b61023760048036038101906102329190612489565b610a82565b60405161024491906125e9565b60405180910390f35b610255610aa6565b60405161026291906125e9565b60405180910390f35b61028560048036038101906102809190612332565b610aac565b60405161029291906125e9565b60405180910390f35b6102b560048036038101906102b09190612332565b610b3f565b6040516102c291906125e9565b60405180910390f35b6102d3610b88565b6040516102e09190612542565b60405180910390f35b61030360048036038101906102fe9190612489565b610bc1565b6040516103109190612527565b60405180910390f35b610333600480360381019061032e9190612489565b610c7c565b604051610347989796959493929190612564565b60405180910390f35b61036a600480360381019061036591906123e6565b610d99565b6040516103779190612527565b60405180910390f35b61039a60048036038101906103959190612489565b610f80565b005b6103b660048036038101906103b19190612489565b611144565b005b6103d260048036038101906103cd9190612422565b61156a565b005b6103dc611823565b6040516103e99190612527565b60405180910390f35b6103fa611990565b60405161040791906125e9565b60405180910390f35b61042a60048036038101906104259190612489565b611996565b005b6104466004803603810190610441919061235b565b611e6b565b60405161045391906125e9565b60405180910390f35b610464611ef2565b6040516104719190612527565b60405180910390f35b6040518060400160405280600681526020017f44476c6f766f000000000000000000000000000000000000000000000000000081525081565b600081600360003373ffffffffffffffffffffffffffffffffffffffff1673ffffffffffffffffffffffffffffffffffffffff16815260200190815260200160002060008573ffffffffffffffffffffffffffffffffffffffff1673ffffffffffffffffffffffffffffffffffffffff168152602001908152602001600020819055508273ffffffffffffffffffffffffffffffffffffffff163373ffffffffffffffffffffffffffffffffffffffff167f8c5be1e5ebec7d5bd14f71427d1e84f3dd0314c0f7b2291e5b200ac8c7c3b9258460405161059391906125e9565b60405180910390a36001905092915050565b6000600554905090565b6000600260008573ffffffffffffffffffffffffffffffffffffffff1673ffffffffffffffffffffffffffffffffffffffff168152602001908152602001600020548211156105fd57600080fd5b600360008573ffffffffffffffffffffffffffffffffffffffff1673ffffffffffffffffffffffffffffffffffffffff16815260200190815260200160002060003373ffffffffffffffffffffffffffffffffffffffff1673ffffffffffffffffffffffffffffffffffffffff1681526020019081526020016000205482111561068657600080fd5b6106d882600260008773ffffffffffffffffffffffffffffffffffffffff1673ffffffffffffffffffffffffffffffffffffffff1681526020019081526020016000205461215e90919063ffffffff16565b600260008673ffffffffffffffffffffffffffffffffffffffff1673ffffffffffffffffffffffffffffffffffffffff168152602001908152602001600020819055506107aa82600360008773ffffffffffffffffffffffffffffffffffffffff1673ffffffffffffffffffffffffffffffffffffffff16815260200190815260200160002060003373ffffffffffffffffffffffffffffffffffffffff1673ffffffffffffffffffffffffffffffffffffffff1681526020019081526020016000205461215e90919063ffffffff16565b600360008673ffffffffffffffffffffffffffffffffffffffff1673ffffffffffffffffffffffffffffffffffffffff16815260200190815260200160002060003373ffffffffffffffffffffffffffffffffffffffff1673ffffffffffffffffffffffffffffffffffffffff1681526020019081526020016000208190555061087c82600260008673ffffffffffffffffffffffffffffffffffffffff1673ffffffffffffffffffffffffffffffffffffffff168152602001908152602001600020546121ab90919063ffffffff16565b600260008573ffffffffffffffffffffffffffffffffffffffff1673ffffffffffffffffffffffffffffffffffffffff168152602001908152602001600020819055508273ffffffffffffffffffffffffffffffffffffffff168473ffffffffffffffffffffffffffffffffffffffff167fddf252ad1be2c89b69c2b068fc378daa952ba7f163c4a11628f55a4df523b3ef8460405161091c91906125e9565b60405180910390a3600190509392505050565b601281565b80600073ffffffffffffffffffffffffffffffffffffffff166006600083815260200190815260200160002060030160009054906101000a900473ffffffffffffffffffffffffffffffffffffffff1673ffffffffffffffffffffffffffffffffffffffff16146109a457600080fd5b610a0c6006600084815260200190815260200160002060070154600260003373ffffffffffffffffffffffffffffffffffffffff1673ffffffffffffffffffffffffffffffffffffffff168152602001908152602001600020546121ab90919063ffffffff16565b600260003373ffffffffffffffffffffffffffffffffffffffff1673ffffffffffffffffffffffffffffffffffffffff1681526020019081526020016000208190555060016006600084815260200190815260200160002060050160006101000a81548160ff0219169083151502179055505050565b60078181548110610a9257600080fd5b906000526020600020016000915090505481565b60015481565b6000600460008373ffffffffffffffffffffffffffffffffffffffff1673ffffffffffffffffffffffffffffffffffffffff16815260200190815260200160002054600260008473ffffffffffffffffffffffffffffffffffffffff1673ffffffffffffffffffffffffffffffffffffffff16815260200190815260200160002054610b38919061269c565b9050919050565b6000600460008373ffffffffffffffffffffffffffffffffffffffff1673ffffffffffffffffffffffffffffffffffffffff168152602001908152602001600020549050919050565b6040518060400160405280600381526020017f44474c000000000000000000000000000000000000000000000000000000000081525081565b6000610bd8826005546121ab90919063ffffffff16565b600581905550610c3082600260003373ffffffffffffffffffffffffffffffffffffffff1673ffffffffffffffffffffffffffffffffffffffff168152602001908152602001600020546121ab90919063ffffffff16565b600260003373ffffffffffffffffffffffffffffffffffffffff1673ffffffffffffffffffffffffffffffffffffffff1681526020019081526020016000208190555060019050919050565b6006602052806000526040600020600091509050806000018054610c9f90612817565b80601f0160208091040260200160405190810160405280929190818152602001828054610ccb90612817565b8015610d185780601f10610ced57610100808354040283529160200191610d18565b820191906000526020600020905b815481529060010190602001808311610cfb57829003601f168201915b5050505050908060010154908060020160009054906101000a900473ffffffffffffffffffffffffffffffffffffffff16908060030160009054906101000a900473ffffffffffffffffffffffffffffffffffffffff16908060040154908060050160009054906101000a900460ff16908060060154908060070154905088565b6000600260003373ffffffffffffffffffffffffffffffffffffffff1673ffffffffffffffffffffffffffffffffffffffff16815260200190815260200160002054821115610de757600080fd5b610e3982600260003373ffffffffffffffffffffffffffffffffffffffff1673ffffffffffffffffffffffffffffffffffffffff1681526020019081526020016000205461215e90919063ffffffff16565b600260003373ffffffffffffffffffffffffffffffffffffffff1673ffffffffffffffffffffffffffffffffffffffff16815260200190815260200160002081905550610ece82600260008673ffffffffffffffffffffffffffffffffffffffff1673ffffffffffffffffffffffffffffffffffffffff168152602001908152602001600020546121ab90919063ffffffff16565b600260008573ffffffffffffffffffffffffffffffffffffffff1673ffffffffffffffffffffffffffffffffffffffff168152602001908152602001600020819055508273ffffffffffffffffffffffffffffffffffffffff163373ffffffffffffffffffffffffffffffffffffffff167fddf252ad1be2c89b69c2b068fc378daa952ba7f163c4a11628f55a4df523b3ef84604051610f6e91906125e9565b60405180910390a36001905092915050565b80600073ffffffffffffffffffffffffffffffffffffffff166006600083815260200190815260200160002060030160009054906101000a900473ffffffffffffffffffffffffffffffffffffffff1673ffffffffffffffffffffffffffffffffffffffff1614610ff057600080fd5b33600154600460008373ffffffffffffffffffffffffffffffffffffffff1673ffffffffffffffffffffffffffffffffffffffff16815260200190815260200160002054101561103f57600080fd5b6110a76006600085815260200190815260200160002060070154600460003373ffffffffffffffffffffffffffffffffffffffff1673ffffffffffffffffffffffffffffffffffffffff1681526020019081526020016000205461215e90919063ffffffff16565b600460003373ffffffffffffffffffffffffffffffffffffffff1673ffffffffffffffffffffffffffffffffffffffff16815260200190815260200160002081905550336006600085815260200190815260200160002060030160006101000a81548173ffffffffffffffffffffffffffffffffffffffff021916908373ffffffffffffffffffffffffffffffffffffffff160217905550505050565b803373ffffffffffffffffffffffffffffffffffffffff166006600083815260200190815260200160002060020160009054906101000a900473ffffffffffffffffffffffffffffffffffffffff1673ffffffffffffffffffffffffffffffffffffffff16146111b357600080fd5b61121b6006600084815260200190815260200160002060070154600260003373ffffffffffffffffffffffffffffffffffffffff1673ffffffffffffffffffffffffffffffffffffffff168152602001908152602001600020546121ab90919063ffffffff16565b600260003373ffffffffffffffffffffffffffffffffffffffff1673ffffffffffffffffffffffffffffffffffffffff168152602001908152602001600020819055506112fc6006600084815260200190815260200160002060070154600460006006600087815260200190815260200160002060030160009054906101000a900473ffffffffffffffffffffffffffffffffffffffff1673ffffffffffffffffffffffffffffffffffffffff1673ffffffffffffffffffffffffffffffffffffffff168152602001908152602001600020546121ab90919063ffffffff16565b600460006006600086815260200190815260200160002060030160009054906101000a900473ffffffffffffffffffffffffffffffffffffffff1673ffffffffffffffffffffffffffffffffffffffff1673ffffffffffffffffffffffffffffffffffffffff1681526020019081526020016000208190555060016006600084815260200190815260200160002060050160006101000a81548160ff02191690831515021790555061140c6006600084815260200190815260200160002060060154600260003373ffffffffffffffffffffffffffffffffffffffff1673ffffffffffffffffffffffffffffffffffffffff1681526020019081526020016000205461215e90919063ffffffff16565b600260003373ffffffffffffffffffffffffffffffffffffffff1673ffffffffffffffffffffffffffffffffffffffff168152602001908152602001600020819055506114ed6006600084815260200190815260200160002060060154600260006006600087815260200190815260200160002060030160009054906101000a900473ffffffffffffffffffffffffffffffffffffffff1673ffffffffffffffffffffffffffffffffffffffff1673ffffffffffffffffffffffffffffffffffffffff168152602001908152602001600020546121ab90919063ffffffff16565b600260006006600086815260200190815260200160002060030160009054906101000a900473ffffffffffffffffffffffffffffffffffffffff1673ffffffffffffffffffffffffffffffffffffffff1673ffffffffffffffffffffffffffffffffffffffff168152602001908152602001600020819055505050565b3360015480600260008473ffffffffffffffffffffffffffffffffffffffff1673ffffffffffffffffffffffffffffffffffffffff1681526020019081526020016000205410156115ba57600080fd5b828060015410156115ca57600080fd5b61161e600154600260003373ffffffffffffffffffffffffffffffffffffffff1673ffffffffffffffffffffffffffffffffffffffff1681526020019081526020016000205461215e90919063ffffffff16565b600260003373ffffffffffffffffffffffffffffffffffffffff1673ffffffffffffffffffffffffffffffffffffffff168152602001908152602001600020819055506040518061010001604052808781526020014281526020013373ffffffffffffffffffffffffffffffffffffffff168152602001600073ffffffffffffffffffffffffffffffffffffffff168152602001868152602001600015158152602001858152602001600154815250600660008054815260200190815260200160002060008201518160000190805190602001906116fd9291906121fd565b506020820151816001015560408201518160020160006101000a81548173ffffffffffffffffffffffffffffffffffffffff021916908373ffffffffffffffffffffffffffffffffffffffff16021790555060608201518160030160006101000a81548173ffffffffffffffffffffffffffffffffffffffff021916908373ffffffffffffffffffffffffffffffffffffffff1602179055506080820151816004015560a08201518160050160006101000a81548160ff02191690831515021790555060c0820151816006015560e08201518160070155905050600760005490806001815401808255809150506001900390600052602060002001600090919091909150556001600080828254611814919061269c565b92505081905550505050505050565b600080600460003373ffffffffffffffffffffffffffffffffffffffff1673ffffffffffffffffffffffffffffffffffffffff168152602001908152602001600020541161187057600080fd5b611901600460003373ffffffffffffffffffffffffffffffffffffffff1673ffffffffffffffffffffffffffffffffffffffff16815260200190815260200160002054600260003373ffffffffffffffffffffffffffffffffffffffff1673ffffffffffffffffffffffffffffffffffffffff168152602001908152602001600020546121ab90919063ffffffff16565b600260003373ffffffffffffffffffffffffffffffffffffffff1673ffffffffffffffffffffffffffffffffffffffff168152602001908152602001600020819055506000600460003373ffffffffffffffffffffffffffffffffffffffff1673ffffffffffffffffffffffffffffffffffffffff168152602001908152602001600020819055506001905090565b60005481565b803373ffffffffffffffffffffffffffffffffffffffff166006600083815260200190815260200160002060020160009054906101000a900473ffffffffffffffffffffffffffffffffffffffff1673ffffffffffffffffffffffffffffffffffffffff1614611a0557600080fd5b814260066000838152602001908152602001600020600401546006600084815260200190815260200160002060010154611a3f919061269c565b118015611a6d57506006600082815260200190815260200160002060050160009054906101000a900460ff16155b611a7657600080fd5b611ade6006600085815260200190815260200160002060070154600260003373ffffffffffffffffffffffffffffffffffffffff1673ffffffffffffffffffffffffffffffffffffffff168152602001908152602001600020546121ab90919063ffffffff16565b600260003373ffffffffffffffffffffffffffffffffffffffff1673ffffffffffffffffffffffffffffffffffffffff16815260200190815260200160002081905550611bbf6006600085815260200190815260200160002060070154600460006006600088815260200190815260200160002060030160009054906101000a900473ffffffffffffffffffffffffffffffffffffffff1673ffffffffffffffffffffffffffffffffffffffff1673ffffffffffffffffffffffffffffffffffffffff168152602001908152602001600020546121ab90919063ffffffff16565b600460006006600087815260200190815260200160002060030160009054906101000a900473ffffffffffffffffffffffffffffffffffffffff1673ffffffffffffffffffffffffffffffffffffffff1673ffffffffffffffffffffffffffffffffffffffff1681526020019081526020016000208190555060016006600085815260200190815260200160002060050160006101000a81548160ff021916908315150217905550611ccf6006600085815260200190815260200160002060060154600260003373ffffffffffffffffffffffffffffffffffffffff1673ffffffffffffffffffffffffffffffffffffffff1681526020019081526020016000205461215e90919063ffffffff16565b600260003373ffffffffffffffffffffffffffffffffffffffff1673ffffffffffffffffffffffffffffffffffffffff16815260200190815260200160002081905550611db06006600085815260200190815260200160002060060154600460006006600088815260200190815260200160002060030160009054906101000a900473ffffffffffffffffffffffffffffffffffffffff1673ffffffffffffffffffffffffffffffffffffffff1673ffffffffffffffffffffffffffffffffffffffff1681526020019081526020016000205461215e90919063ffffffff16565b600460006006600087815260200190815260200160002060030160009054906101000a900473ffffffffffffffffffffffffffffffffffffffff1673ffffffffffffffffffffffffffffffffffffffff1673ffffffffffffffffffffffffffffffffffffffff16815260200190815260200160002081905550611e6060026006600086815260200190815260200160002060060154611e4f91906126f2565b60055461215e90919063ffffffff16565b600581905550505050565b6000600360008473ffffffffffffffffffffffffffffffffffffffff1673ffffffffffffffffffffffffffffffffffffffff16815260200190815260200160002060008373ffffffffffffffffffffffffffffffffffffffff1673ffffffffffffffffffffffffffffffffffffffff16815260200190815260200160002054905092915050565b600033600460008273ffffffffffffffffffffffffffffffffffffffff1673ffffffffffffffffffffffffffffffffffffffff16815260200190815260200160002054600154611f42919061274c565b600260008373ffffffffffffffffffffffffffffffffffffffff1673ffffffffffffffffffffffffffffffffffffffff168152602001908152602001600020541015611f8d57600080fd5b600154600460003373ffffffffffffffffffffffffffffffffffffffff1673ffffffffffffffffffffffffffffffffffffffff1681526020019081526020016000205410611fda57600080fd5b6000600460003373ffffffffffffffffffffffffffffffffffffffff1673ffffffffffffffffffffffffffffffffffffffff16815260200190815260200160002054600154612029919061274c565b905061207d81600460003373ffffffffffffffffffffffffffffffffffffffff1673ffffffffffffffffffffffffffffffffffffffff168152602001908152602001600020546121ab90919063ffffffff16565b600460003373ffffffffffffffffffffffffffffffffffffffff1673ffffffffffffffffffffffffffffffffffffffff1681526020019081526020016000208190555061211281600260003373ffffffffffffffffffffffffffffffffffffffff1673ffffffffffffffffffffffffffffffffffffffff1681526020019081526020016000205461215e90919063ffffffff16565b600260003373ffffffffffffffffffffffffffffffffffffffff1673ffffffffffffffffffffffffffffffffffffffff1681526020019081526020016000208190555060019250505090565b600082821115612197577f4e487b7100000000000000000000000000000000000000000000000000000000600052600160045260246000fd5b81836121a3919061274c565b905092915050565b60008082846121ba919061269c565b9050838110156121f3577f4e487b7100000000000000000000000000000000000000000000000000000000600052600160045260246000fd5b8091505092915050565b82805461220990612817565b90600052602060002090601f01602090048101928261222b5760008555612272565b82601f1061224457805160ff1916838001178555612272565b82800160010185558215612272579182015b82811115612271578251825591602001919060010190612256565b5b50905061227f9190612283565b5090565b5b8082111561229c576000816000905550600101612284565b5090565b60006122b36122ae84612650565b61261f565b9050828152602081018484840111156122cb57600080fd5b6122d68482856127d5565b509392505050565b6000813590506122ed816128e7565b92915050565b600082601f83011261230457600080fd5b81356123148482602086016122a0565b91505092915050565b60008135905061232c816128fe565b92915050565b60006020828403121561234457600080fd5b6000612352848285016122de565b91505092915050565b6000806040838503121561236e57600080fd5b600061237c858286016122de565b925050602061238d858286016122de565b9150509250929050565b6000806000606084860312156123ac57600080fd5b60006123ba868287016122de565b93505060206123cb868287016122de565b92505060406123dc8682870161231d565b9150509250925092565b600080604083850312156123f957600080fd5b6000612407858286016122de565b92505060206124188582860161231d565b9150509250929050565b60008060006060848603121561243757600080fd5b600084013567ffffffffffffffff81111561245157600080fd5b61245d868287016122f3565b935050602061246e8682870161231d565b925050604061247f8682870161231d565b9150509250925092565b60006020828403121561249b57600080fd5b60006124a98482850161231d565b91505092915050565b6124bb81612780565b82525050565b6124ca81612792565b82525050565b60006124db82612680565b6124e5818561268b565b93506124f58185602086016127e4565b6124fe816128d6565b840191505092915050565b612512816127be565b82525050565b612521816127c8565b82525050565b600060208201905061253c60008301846124c1565b92915050565b6000602082019050818103600083015261255c81846124d0565b905092915050565b600061010082019050818103600083015261257f818b6124d0565b905061258e602083018a612509565b61259b60408301896124b2565b6125a860608301886124b2565b6125b56080830187612509565b6125c260a08301866124c1565b6125cf60c0830185612509565b6125dc60e0830184612509565b9998505050505050505050565b60006020820190506125fe6000830184612509565b92915050565b60006020820190506126196000830184612518565b92915050565b6000604051905081810181811067ffffffffffffffff82111715612646576126456128a7565b5b8060405250919050565b600067ffffffffffffffff82111561266b5761266a6128a7565b5b601f19601f8301169050602081019050919050565b600081519050919050565b600082825260208201905092915050565b60006126a7826127be565b91506126b2836127be565b9250827fffffffffffffffffffffffffffffffffffffffffffffffffffffffffffffffff038211156126e7576126e6612849565b5b828201905092915050565b60006126fd826127be565b9150612708836127be565b9250817fffffffffffffffffffffffffffffffffffffffffffffffffffffffffffffffff048311821515161561274157612740612849565b5b828202905092915050565b6000612757826127be565b9150612762836127be565b92508282101561277557612774612849565b5b828203905092915050565b600061278b8261279e565b9050919050565b60008115159050919050565b600073ffffffffffffffffffffffffffffffffffffffff82169050919050565b6000819050919050565b600060ff82169050919050565b82818337600083830152505050565b60005b838110156128025780820151818401526020810190506127e7565b83811115612811576000848401525b50505050565b6000600282049050600182168061282f57607f821691505b6020821081141561284357612842612878565b5b50919050565b7f4e487b7100000000000000000000000000000000000000000000000000000000600052601160045260246000fd5b7f4e487b7100000000000000000000000000000000000000000000000000000000600052602260045260246000fd5b7f4e487b7100000000000000000000000000000000000000000000000000000000600052604160045260246000fd5b6000601f19601f8301169050919050565b6128f081612780565b81146128fb57600080fd5b50565b612907816127be565b811461291257600080fd5b5056fea26469706673582212205e16e9c5efe2a7136b52022dd535e9c211e4b5b35c46d92acb002cdf01a15b5d64736f6c63430008000033",
  "immutableReferences": {},
  "source": "pragma solidity 0.8.0;\n\nimport \"./interfaces/IERC20.sol\";\n\ncontract DGlovo is IERC20{\n\n  uint public lastId;\n\n  struct Order {\n    string petition;\n    uint creationTime;\n    address requester;\n    address worker;\n    uint timeLimit;\n    bool completed;\n    uint price;\n    uint256 lockedAmount;\n  }\n\n  string public constant name = \"DGlovo\";\n  string public constant symbol = \"DGL\";\n  uint8 public constant decimals = 18;\n\n  uint256 public stakeAmount;\n\n  mapping(address => uint256) balances;\n\n  mapping(address => mapping (address => uint256)) allowed;\n\n  mapping(address => uint256) locked;\n\n  uint256 totalSupply_;\n\n  using SafeMath for uint256;\n\n  mapping(uint => Order) public orders;\n\n  uint[] public orderids;\n\n  // Constructor\n  constructor(uint256 total) {\n      lastId = 0;\n      stakeAmount = 10000000000000000000;\n      totalSupply_ = total;\n    \tbalances[msg.sender] = totalSupply_;\n  }\n\n  modifier isRequester(uint orderId) { require(orders[orderId].requester == msg.sender); _; }\n\n  modifier hasEnoughToStake(address stakeOwner) { require(balances[stakeOwner] >= (stakeAmount - locked[stakeOwner])); _; }\n\n  modifier hasMoreThan(address user, uint256 value) { require(balances[user] >= value); _; }\n\n  modifier isLessThanStake(uint256 value) { require(stakeAmount >= value); _; }\n\n  modifier isStaking(address stakeOwner) { require(locked[stakeOwner] >= stakeAmount); _; }\n\n  modifier hasNoWorker(uint orderId) { require(orders[orderId].worker == address(0)); _; }\n\n  modifier isLate(uint orderId) { require(orders[orderId].creationTime + orders[orderId].timeLimit > block.timestamp && !orders[orderId].completed); _; }\n\n  function totalSupply() public view virtual override returns (uint256) {\n  \treturn totalSupply_;\n  }\n\n  function balanceOf(address tokenOwner) public view virtual override returns (uint) {\n    return balances[tokenOwner] + locked[tokenOwner];\n  }\n\n  function transfer(address receiver, uint numTokens) public virtual override returns (bool) {\n    require(numTokens <= balances[msg.sender]);\n    balances[msg.sender] = balances[msg.sender].sub(numTokens);\n    balances[receiver] = balances[receiver].add(numTokens);\n    emit Transfer(msg.sender, receiver, numTokens);\n    return true;\n  }\n\n  function approve(address delegate, uint numTokens) public virtual override returns (bool) {\n    allowed[msg.sender][delegate] = numTokens;\n    Approval(msg.sender, delegate, numTokens);\n    return true;\n  }\n\n  function allowance(address owner, address delegate) public virtual override view returns (uint) {\n    return allowed[owner][delegate];\n  }\n\n  function transferFrom(address owner, address buyer, uint numTokens) public virtual override returns (bool) {\n    require(numTokens <= balances[owner]);\n    require(numTokens <= allowed[owner][msg.sender]);\n\n    balances[owner] = balances[owner].sub(numTokens);\n    allowed[owner][msg.sender] = allowed[owner][msg.sender].sub(numTokens);\n    balances[buyer] = balances[buyer].add(numTokens);\n    Transfer(owner, buyer, numTokens);\n    return true;\n  }\n\n  function lockStake() hasEnoughToStake(msg.sender) public returns (bool) {\n    require(locked[msg.sender] < stakeAmount);\n\n    uint quantity = stakeAmount - locked[msg.sender];\n    locked[msg.sender] = locked[msg.sender].add(quantity);\n    balances[msg.sender] = balances[msg.sender].sub(quantity);\n    return true;\n  }\n\n  function lockedAmountOf(address stakeOwner) public view virtual returns (uint) {\n    return locked[stakeOwner];\n  }\n\n  function unlockStake() public returns (bool) {\n    require(locked[msg.sender] > 0);\n\n    balances[msg.sender] = balances[msg.sender].add(locked[msg.sender]);\n    locked[msg.sender] = 0;\n    return true;\n  }\n\n  function mint(uint256 amount) public returns (bool) {\n    totalSupply_ = totalSupply_.add(amount);\n    balances[msg.sender] = balances[msg.sender].add(amount);\n    return true;\n  }\n\n  function createOrder(string memory petition, uint256 timeLimit, uint256 price) hasMoreThan(msg.sender, stakeAmount) isLessThanStake(price) public {\n    balances[msg.sender] = balances[msg.sender].sub(stakeAmount);\n    orders[lastId] = Order({\n        petition: petition,\n        creationTime: block.timestamp,\n        requester: msg.sender,\n        worker: address(0),\n        timeLimit: timeLimit,\n        completed: false,\n        price: price,\n        lockedAmount: stakeAmount\n      });\n    orderids.push(lastId);\n    lastId += 1;\n  }\n\n  function assignOrder(uint orderId) hasNoWorker(orderId) isStaking(msg.sender) public {\n    locked[msg.sender] = locked[msg.sender].sub(orders[orderId].lockedAmount);\n    orders[orderId].worker = msg.sender;\n  }\n\n  function completeOrder(uint orderId) isRequester(orderId) public {\n    balances[msg.sender] = balances[msg.sender].add(orders[orderId].lockedAmount);\n    locked[orders[orderId].worker] = locked[orders[orderId].worker].add(orders[orderId].lockedAmount);\n    orders[orderId].completed = true;\n    balances[msg.sender] = balances[msg.sender].sub(orders[orderId].price);\n    balances[orders[orderId].worker] = balances[orders[orderId].worker].add(orders[orderId].price);\n  }\n\n  function cancelOrder(uint orderId) hasNoWorker(orderId) public {\n    balances[msg.sender] = balances[msg.sender].add(orders[orderId].lockedAmount);\n    orders[orderId].completed = true;\n  }\n\n  function uncompletedOrder(uint orderId) isRequester(orderId) isLate(orderId) public {\n    balances[msg.sender] = balances[msg.sender].add(orders[orderId].lockedAmount);\n    locked[orders[orderId].worker] = locked[orders[orderId].worker].add(orders[orderId].lockedAmount);\n    orders[orderId].completed = true;\n    balances[msg.sender] = balances[msg.sender].sub(orders[orderId].price);\n    locked[orders[orderId].worker] = locked[orders[orderId].worker].sub(orders[orderId].price);\n    totalSupply_ = totalSupply_.sub(orders[orderId].price*2);\n  }\n}\n\nlibrary SafeMath {\n    function sub(uint256 a, uint256 b) internal pure returns (uint256) {\n      assert(b <= a);\n      return a - b;\n    }\n\n    function add(uint256 a, uint256 b) internal pure returns (uint256) {\n      uint256 c = a + b;\n      assert(c >= a);\n      return c;\n    }\n}\n",
  "sourcePath": "/home/guillem/Documents/projects/DGlovo/contracts/DGlovo.sol",
  "compiler": {
    "name": "solc",
    "version": "0.8.0+commit.c7dfd78e.Emscripten.clang"
  },
  "schemaVersion": "3.4.1",
  "updatedAt": "2021-07-02T08:58:00.987Z",
  "networkType": "ethereum",
  "devdoc": {
    "kind": "dev",
    "methods": {
      "totalSupply()": {
        "details": "Returns the amount of tokens in existence."
      }
    },
    "version": 1
  },
  "userdoc": {
    "kind": "user",
    "methods": {},
    "version": 1
  }
}