{
  "contractName": "DGlovo",
  "abi": [
    {
      "inputs": [],
      "stateMutability": "nonpayable",
      "type": "constructor"
    },
    {
      "inputs": [],
      "name": "lastId",
      "outputs": [
        {
          "internalType": "uint256",
          "name": "",
          "type": "uint256"
        }
      ],
      "stateMutability": "view",
      "type": "function",
      "constant": true
    },
    {
      "inputs": [
        {
          "internalType": "uint256",
          "name": "",
          "type": "uint256"
        }
      ],
      "name": "orderids",
      "outputs": [
        {
          "internalType": "uint256",
          "name": "",
          "type": "uint256"
        }
      ],
      "stateMutability": "view",
      "type": "function",
      "constant": true
    },
    {
      "inputs": [
        {
          "internalType": "uint256",
          "name": "",
          "type": "uint256"
        }
      ],
      "name": "orders",
      "outputs": [
        {
          "internalType": "string",
          "name": "petition",
          "type": "string"
        },
        {
          "internalType": "uint256",
          "name": "creationTime",
          "type": "uint256"
        },
        {
          "internalType": "address",
          "name": "requester",
          "type": "address"
        },
        {
          "internalType": "address",
          "name": "worker",
          "type": "address"
        },
        {
          "internalType": "uint256",
          "name": "timeLimit",
          "type": "uint256"
        },
        {
          "internalType": "bool",
          "name": "completed",
          "type": "bool"
        },
        {
          "internalType": "uint256",
          "name": "price",
          "type": "uint256"
        }
      ],
      "stateMutability": "view",
      "type": "function",
      "constant": true
    },
    {
      "inputs": [
        {
          "internalType": "string",
          "name": "petition",
          "type": "string"
        }
      ],
      "name": "createOrder",
      "outputs": [],
      "stateMutability": "nonpayable",
      "type": "function"
    },
    {
      "inputs": [
        {
          "internalType": "uint256",
          "name": "orderId",
          "type": "uint256"
        }
      ],
      "name": "assignOrder",
      "outputs": [],
      "stateMutability": "nonpayable",
      "type": "function"
    },
    {
      "inputs": [
        {
          "internalType": "uint256",
          "name": "orderId",
          "type": "uint256"
        }
      ],
      "name": "completeOrder",
      "outputs": [],
      "stateMutability": "nonpayable",
      "type": "function"
    }
  ],
  "bytecode": "0x608060405234801561001057600080fd5b5060008081905550610a20806100276000396000f3fe608060405234801561001057600080fd5b50600436106100625760003560e01c806303b7c7641461006757806357ac09f914610083578063a85c38ef146100b3578063b3c58eec146100e9578063b6adaaff14610105578063c1292cc314610121575b600080fd5b610081600480360381019061007c9190610645565b61013f565b005b61009d60048036038101906100989190610686565b6102eb565b6040516100aa919061078b565b60405180910390f35b6100cd60048036038101906100c89190610686565b61030f565b6040516100e09796959493929190610715565b60405180910390f35b61010360048036038101906100fe9190610686565b610426565b005b61011f600480360381019061011a9190610686565b61047e565b005b61012961051f565b604051610136919061078b565b60405180910390f35b6040518060e001604052808281526020014281526020013373ffffffffffffffffffffffffffffffffffffffff168152602001600073ffffffffffffffffffffffffffffffffffffffff16815260200160648152602001600015158152602001600a815250600160008054815260200190815260200160002060008201518160000190805190602001906101d4929190610525565b506020820151816001015560408201518160020160006101000a81548173ffffffffffffffffffffffffffffffffffffffff021916908373ffffffffffffffffffffffffffffffffffffffff16021790555060608201518160030160006101000a81548173ffffffffffffffffffffffffffffffffffffffff021916908373ffffffffffffffffffffffffffffffffffffffff1602179055506080820151816004015560a08201518160050160006101000a81548160ff02191690831515021790555060c082015181600601559050506002600054908060018154018082558091505060019003906000526020600020016000909190919091505560016000808282546102e19190610823565b9250508190555050565b600281815481106102fb57600080fd5b906000526020600020016000915090505481565b600160205280600052604060002060009150905080600001805461033290610903565b80601f016020809104026020016040519081016040528092919081815260200182805461035e90610903565b80156103ab5780601f10610380576101008083540402835291602001916103ab565b820191906000526020600020905b81548152906001019060200180831161038e57829003601f168201915b5050505050908060010154908060020160009054906101000a900473ffffffffffffffffffffffffffffffffffffffff16908060030160009054906101000a900473ffffffffffffffffffffffffffffffffffffffff16908060040154908060050160009054906101000a900460ff16908060060154905087565b336001600083815260200190815260200160002060030160006101000a81548173ffffffffffffffffffffffffffffffffffffffff021916908373ffffffffffffffffffffffffffffffffffffffff16021790555050565b803373ffffffffffffffffffffffffffffffffffffffff166001600083815260200190815260200160002060020160009054906101000a900473ffffffffffffffffffffffffffffffffffffffff1673ffffffffffffffffffffffffffffffffffffffff16146104ed57600080fd5b600180600084815260200190815260200160002060050160006101000a81548160ff0219169083151502179055505050565b60005481565b82805461053190610903565b90600052602060002090601f016020900481019282610553576000855561059a565b82601f1061056c57805160ff191683800117855561059a565b8280016001018555821561059a579182015b8281111561059957825182559160200191906001019061057e565b5b5090506105a791906105ab565b5090565b5b808211156105c45760008160009055506001016105ac565b5090565b60006105db6105d6846107d7565b6107a6565b9050828152602081018484840111156105f357600080fd5b6105fe8482856108c1565b509392505050565b600082601f83011261061757600080fd5b81356106278482602086016105c8565b91505092915050565b60008135905061063f816109d3565b92915050565b60006020828403121561065757600080fd5b600082013567ffffffffffffffff81111561067157600080fd5b61067d84828501610606565b91505092915050565b60006020828403121561069857600080fd5b60006106a684828501610630565b91505092915050565b6106b881610879565b82525050565b6106c78161088b565b82525050565b60006106d882610807565b6106e28185610812565b93506106f28185602086016108d0565b6106fb816109c2565b840191505092915050565b61070f816108b7565b82525050565b600060e082019050818103600083015261072f818a6106cd565b905061073e6020830189610706565b61074b60408301886106af565b61075860608301876106af565b6107656080830186610706565b61077260a08301856106be565b61077f60c0830184610706565b98975050505050505050565b60006020820190506107a06000830184610706565b92915050565b6000604051905081810181811067ffffffffffffffff821117156107cd576107cc610993565b5b8060405250919050565b600067ffffffffffffffff8211156107f2576107f1610993565b5b601f19601f8301169050602081019050919050565b600081519050919050565b600082825260208201905092915050565b600061082e826108b7565b9150610839836108b7565b9250827fffffffffffffffffffffffffffffffffffffffffffffffffffffffffffffffff0382111561086e5761086d610935565b5b828201905092915050565b600061088482610897565b9050919050565b60008115159050919050565b600073ffffffffffffffffffffffffffffffffffffffff82169050919050565b6000819050919050565b82818337600083830152505050565b60005b838110156108ee5780820151818401526020810190506108d3565b838111156108fd576000848401525b50505050565b6000600282049050600182168061091b57607f821691505b6020821081141561092f5761092e610964565b5b50919050565b7f4e487b7100000000000000000000000000000000000000000000000000000000600052601160045260246000fd5b7f4e487b7100000000000000000000000000000000000000000000000000000000600052602260045260246000fd5b7f4e487b7100000000000000000000000000000000000000000000000000000000600052604160045260246000fd5b6000601f19601f8301169050919050565b6109dc816108b7565b81146109e757600080fd5b5056fea2646970667358221220b7d4a411f16321ca465f0a51ada4ca61c41c16281ed4064f6ce9b2438570c88264736f6c63430008000033",
  "immutableReferences": {},
  "source": "pragma solidity 0.8.0;\n\ncontract DGlovo {\n\n    uint public lastId;\n\n    struct Order {\n      string petition;\n      uint creationTime;\n      address requester;\n      address worker;\n      uint timeLimit;\n      bool completed;\n      uint price;\n    }\n\n    mapping(uint => Order) public orders;\n    uint[] public orderids;\n\n    // Constructor\n    constructor() {\n        lastId = 0;\n    }\n\n    modifier isRequester(uint orderId) { require(orders[orderId].requester == msg.sender); _; }\n\n    function createOrder(string memory petition) public {\n      orders[lastId] = Order({\n          petition: petition,\n          creationTime: block.timestamp,\n          requester: msg.sender,\n          worker: address(0),\n          timeLimit: 100,\n          completed: false,\n          price: 10\n        });\n      orderids.push(lastId);\n      lastId += 1;\n    }\n\n    function assignOrder(uint orderId) public {\n      orders[orderId].worker = msg.sender;\n      //TODO: pay some tokens\n    }\n\n    function completeOrder(uint orderId) isRequester(orderId) public {\n      orders[orderId].completed = true;\n      //TODO: return tokens to worker + payout\n    }\n}\n",
  "sourcePath": "/home/guillem/Documents/projects/DGlovo/contracts/DGlovo.sol",
  "compiler": {
    "name": "solc",
    "version": "0.8.0+commit.c7dfd78e.Emscripten.clang"
  },
  "schemaVersion": "3.4.1",
  "updatedAt": "2021-06-14T14:18:12.495Z",
  "networkType": "ethereum",
  "devdoc": {
    "kind": "dev",
    "methods": {},
    "version": 1
  },
  "userdoc": {
    "kind": "user",
    "methods": {},
    "version": 1
  }
}