{
  "contractName": "DGlovo",
  "abi": [
    {
      "inputs": [
        {
          "internalType": "uint256",
          "name": "total",
          "type": "uint256"
        }
      ],
      "stateMutability": "nonpayable",
      "type": "constructor"
    },
    {
      "anonymous": false,
      "inputs": [
        {
          "indexed": true,
          "internalType": "address",
          "name": "owner",
          "type": "address"
        },
        {
          "indexed": true,
          "internalType": "address",
          "name": "spender",
          "type": "address"
        },
        {
          "indexed": false,
          "internalType": "uint256",
          "name": "value",
          "type": "uint256"
        }
      ],
      "name": "Approval",
      "type": "event"
    },
    {
      "anonymous": false,
      "inputs": [
        {
          "indexed": true,
          "internalType": "address",
          "name": "from",
          "type": "address"
        },
        {
          "indexed": true,
          "internalType": "address",
          "name": "to",
          "type": "address"
        },
        {
          "indexed": false,
          "internalType": "uint256",
          "name": "value",
          "type": "uint256"
        }
      ],
      "name": "Transfer",
      "type": "event"
    },
    {
      "inputs": [],
      "name": "decimals",
      "outputs": [
        {
          "internalType": "uint8",
          "name": "",
          "type": "uint8"
        }
      ],
      "stateMutability": "view",
      "type": "function",
      "constant": true
    },
    {
      "inputs": [],
      "name": "lastId",
      "outputs": [
        {
          "internalType": "uint256",
          "name": "",
          "type": "uint256"
        }
      ],
      "stateMutability": "view",
      "type": "function",
      "constant": true
    },
    {
      "inputs": [],
      "name": "name",
      "outputs": [
        {
          "internalType": "string",
          "name": "",
          "type": "string"
        }
      ],
      "stateMutability": "view",
      "type": "function",
      "constant": true
    },
    {
      "inputs": [
        {
          "internalType": "uint256",
          "name": "",
          "type": "uint256"
        }
      ],
      "name": "orderids",
      "outputs": [
        {
          "internalType": "uint256",
          "name": "",
          "type": "uint256"
        }
      ],
      "stateMutability": "view",
      "type": "function",
      "constant": true
    },
    {
      "inputs": [
        {
          "internalType": "uint256",
          "name": "",
          "type": "uint256"
        }
      ],
      "name": "orders",
      "outputs": [
        {
          "internalType": "string",
          "name": "petition",
          "type": "string"
        },
        {
          "internalType": "uint256",
          "name": "creationTime",
          "type": "uint256"
        },
        {
          "internalType": "address",
          "name": "requester",
          "type": "address"
        },
        {
          "internalType": "address",
          "name": "worker",
          "type": "address"
        },
        {
          "internalType": "uint256",
          "name": "timeLimit",
          "type": "uint256"
        },
        {
          "internalType": "bool",
          "name": "completed",
          "type": "bool"
        },
        {
          "internalType": "uint256",
          "name": "price",
          "type": "uint256"
        }
      ],
      "stateMutability": "view",
      "type": "function",
      "constant": true
    },
    {
      "inputs": [],
      "name": "stakeAmount",
      "outputs": [
        {
          "internalType": "uint256",
          "name": "",
          "type": "uint256"
        }
      ],
      "stateMutability": "view",
      "type": "function",
      "constant": true
    },
    {
      "inputs": [],
      "name": "symbol",
      "outputs": [
        {
          "internalType": "string",
          "name": "",
          "type": "string"
        }
      ],
      "stateMutability": "view",
      "type": "function",
      "constant": true
    },
    {
      "inputs": [],
      "name": "totalSupply",
      "outputs": [
        {
          "internalType": "uint256",
          "name": "",
          "type": "uint256"
        }
      ],
      "stateMutability": "view",
      "type": "function",
      "constant": true
    },
    {
      "inputs": [
        {
          "internalType": "address",
          "name": "tokenOwner",
          "type": "address"
        }
      ],
      "name": "balanceOf",
      "outputs": [
        {
          "internalType": "uint256",
          "name": "",
          "type": "uint256"
        }
      ],
      "stateMutability": "view",
      "type": "function",
      "constant": true
    },
    {
      "inputs": [
        {
          "internalType": "address",
          "name": "receiver",
          "type": "address"
        },
        {
          "internalType": "uint256",
          "name": "numTokens",
          "type": "uint256"
        }
      ],
      "name": "transfer",
      "outputs": [
        {
          "internalType": "bool",
          "name": "",
          "type": "bool"
        }
      ],
      "stateMutability": "nonpayable",
      "type": "function"
    },
    {
      "inputs": [
        {
          "internalType": "address",
          "name": "delegate",
          "type": "address"
        },
        {
          "internalType": "uint256",
          "name": "numTokens",
          "type": "uint256"
        }
      ],
      "name": "approve",
      "outputs": [
        {
          "internalType": "bool",
          "name": "",
          "type": "bool"
        }
      ],
      "stateMutability": "nonpayable",
      "type": "function"
    },
    {
      "inputs": [
        {
          "internalType": "address",
          "name": "owner",
          "type": "address"
        },
        {
          "internalType": "address",
          "name": "delegate",
          "type": "address"
        }
      ],
      "name": "allowance",
      "outputs": [
        {
          "internalType": "uint256",
          "name": "",
          "type": "uint256"
        }
      ],
      "stateMutability": "view",
      "type": "function",
      "constant": true
    },
    {
      "inputs": [
        {
          "internalType": "address",
          "name": "owner",
          "type": "address"
        },
        {
          "internalType": "address",
          "name": "buyer",
          "type": "address"
        },
        {
          "internalType": "uint256",
          "name": "numTokens",
          "type": "uint256"
        }
      ],
      "name": "transferFrom",
      "outputs": [
        {
          "internalType": "bool",
          "name": "",
          "type": "bool"
        }
      ],
      "stateMutability": "nonpayable",
      "type": "function"
    },
    {
      "inputs": [],
      "name": "lockStake",
      "outputs": [
        {
          "internalType": "bool",
          "name": "",
          "type": "bool"
        }
      ],
      "stateMutability": "nonpayable",
      "type": "function"
    },
    {
      "inputs": [
        {
          "internalType": "address",
          "name": "stakeOwner",
          "type": "address"
        }
      ],
      "name": "lockedAmountOf",
      "outputs": [
        {
          "internalType": "uint256",
          "name": "",
          "type": "uint256"
        }
      ],
      "stateMutability": "view",
      "type": "function",
      "constant": true
    },
    {
      "inputs": [],
      "name": "unlockStake",
      "outputs": [
        {
          "internalType": "bool",
          "name": "",
          "type": "bool"
        }
      ],
      "stateMutability": "nonpayable",
      "type": "function"
    },
    {
      "inputs": [
        {
          "internalType": "uint256",
          "name": "amount",
          "type": "uint256"
        }
      ],
      "name": "mint",
      "outputs": [
        {
          "internalType": "bool",
          "name": "",
          "type": "bool"
        }
      ],
      "stateMutability": "nonpayable",
      "type": "function"
    },
    {
      "inputs": [
        {
          "internalType": "string",
          "name": "petition",
          "type": "string"
        },
        {
          "internalType": "uint256",
          "name": "timeLimit",
          "type": "uint256"
        },
        {
          "internalType": "uint256",
          "name": "price",
          "type": "uint256"
        }
      ],
      "name": "createOrder",
      "outputs": [],
      "stateMutability": "nonpayable",
      "type": "function"
    },
    {
      "inputs": [
        {
          "internalType": "uint256",
          "name": "orderId",
          "type": "uint256"
        }
      ],
      "name": "assignOrder",
      "outputs": [],
      "stateMutability": "nonpayable",
      "type": "function"
    },
    {
      "inputs": [
        {
          "internalType": "uint256",
          "name": "orderId",
          "type": "uint256"
        }
      ],
      "name": "completeOrder",
      "outputs": [],
      "stateMutability": "nonpayable",
      "type": "function"
    }
  ],
  "bytecode": "0x60806040523480156200001157600080fd5b5060405162001d8538038062001d858339818101604052810190620000379190620000b8565b60008081905550678ac7230489e8000060018190555080600581905550600554600260003373ffffffffffffffffffffffffffffffffffffffff1673ffffffffffffffffffffffffffffffffffffffff168152602001908152602001600020819055505062000108565b600081519050620000b281620000ee565b92915050565b600060208284031215620000cb57600080fd5b6000620000db84828501620000a1565b91505092915050565b6000819050919050565b620000f981620000e4565b81146200010557600080fd5b50565b611c6d80620001186000396000f3fe608060405234801561001057600080fd5b506004361061012c5760003560e01c8063a0712d68116100ad578063b8fc59ba11610071578063b8fc59ba14610385578063bb9fe6bf146103a1578063c1292cc3146103bf578063dd62ed3e146103dd578063e1c98d8c1461040d5761012c565b8063a0712d68146102b7578063a85c38ef146102e7578063a9059cbb1461031d578063b3c58eec1461034d578063b6adaaff146103695761012c565b806357ac09f9116100f457806357ac09f9146101eb57806360c7dc471461021b57806370a08231146102395780638b9d68991461026957806395d89b41146102995761012c565b806306fdde0314610131578063095ea7b31461014f57806318160ddd1461017f57806323b872dd1461019d578063313ce567146101cd575b600080fd5b61013961042b565b60405161014691906118cd565b60405180910390f35b61016960048036038101906101649190611771565b610464565b60405161017691906118b2565b60405180910390f35b610187610556565b6040516101949190611965565b60405180910390f35b6101b760048036038101906101b29190611722565b610560565b6040516101c491906118b2565b60405180910390f35b6101d56108e0565b6040516101e29190611980565b60405180910390f35b61020560048036038101906102009190611814565b6108e5565b6040516102129190611965565b60405180910390f35b610223610909565b6040516102309190611965565b60405180910390f35b610253600480360381019061024e91906116bd565b61090f565b6040516102609190611965565b60405180910390f35b610283600480360381019061027e91906116bd565b6109a2565b6040516102909190611965565b60405180910390f35b6102a16109eb565b6040516102ae91906118cd565b60405180910390f35b6102d160048036038101906102cc9190611814565b610a24565b6040516102de91906118b2565b60405180910390f35b61030160048036038101906102fc9190611814565b610adf565b60405161031497969594939291906118ef565b60405180910390f35b61033760048036038101906103329190611771565b610bf6565b60405161034491906118b2565b60405180910390f35b61036760048036038101906103629190611814565b610ddd565b005b610383600480360381019061037e9190611814565b610e35565b005b61039f600480360381019061039a91906117ad565b610ed7565b005b6103a9611083565b6040516103b691906118b2565b60405180910390f35b6103c76111f0565b6040516103d49190611965565b60405180910390f35b6103f760048036038101906103f291906116e6565b6111f6565b6040516104049190611965565b60405180910390f35b61041561127d565b60405161042291906118b2565b60405180910390f35b6040518060400160405280600681526020017f44476c6f766f000000000000000000000000000000000000000000000000000081525081565b600081600360003373ffffffffffffffffffffffffffffffffffffffff1673ffffffffffffffffffffffffffffffffffffffff16815260200190815260200160002060008573ffffffffffffffffffffffffffffffffffffffff1673ffffffffffffffffffffffffffffffffffffffff168152602001908152602001600020819055508273ffffffffffffffffffffffffffffffffffffffff163373ffffffffffffffffffffffffffffffffffffffff167f8c5be1e5ebec7d5bd14f71427d1e84f3dd0314c0f7b2291e5b200ac8c7c3b925846040516105449190611965565b60405180910390a36001905092915050565b6000600554905090565b6000600260008573ffffffffffffffffffffffffffffffffffffffff1673ffffffffffffffffffffffffffffffffffffffff168152602001908152602001600020548211156105ae57600080fd5b600360008573ffffffffffffffffffffffffffffffffffffffff1673ffffffffffffffffffffffffffffffffffffffff16815260200190815260200160002060003373ffffffffffffffffffffffffffffffffffffffff1673ffffffffffffffffffffffffffffffffffffffff1681526020019081526020016000205482111561063757600080fd5b61068982600260008773ffffffffffffffffffffffffffffffffffffffff1673ffffffffffffffffffffffffffffffffffffffff168152602001908152602001600020546114e990919063ffffffff16565b600260008673ffffffffffffffffffffffffffffffffffffffff1673ffffffffffffffffffffffffffffffffffffffff1681526020019081526020016000208190555061075b82600360008773ffffffffffffffffffffffffffffffffffffffff1673ffffffffffffffffffffffffffffffffffffffff16815260200190815260200160002060003373ffffffffffffffffffffffffffffffffffffffff1673ffffffffffffffffffffffffffffffffffffffff168152602001908152602001600020546114e990919063ffffffff16565b600360008673ffffffffffffffffffffffffffffffffffffffff1673ffffffffffffffffffffffffffffffffffffffff16815260200190815260200160002060003373ffffffffffffffffffffffffffffffffffffffff1673ffffffffffffffffffffffffffffffffffffffff1681526020019081526020016000208190555061082d82600260008673ffffffffffffffffffffffffffffffffffffffff1673ffffffffffffffffffffffffffffffffffffffff1681526020019081526020016000205461153690919063ffffffff16565b600260008573ffffffffffffffffffffffffffffffffffffffff1673ffffffffffffffffffffffffffffffffffffffff168152602001908152602001600020819055508273ffffffffffffffffffffffffffffffffffffffff168473ffffffffffffffffffffffffffffffffffffffff167fddf252ad1be2c89b69c2b068fc378daa952ba7f163c4a11628f55a4df523b3ef846040516108cd9190611965565b60405180910390a3600190509392505050565b601281565b600781815481106108f557600080fd5b906000526020600020016000915090505481565b60015481565b6000600460008373ffffffffffffffffffffffffffffffffffffffff1673ffffffffffffffffffffffffffffffffffffffff16815260200190815260200160002054600260008473ffffffffffffffffffffffffffffffffffffffff1673ffffffffffffffffffffffffffffffffffffffff1681526020019081526020016000205461099b9190611a18565b9050919050565b6000600460008373ffffffffffffffffffffffffffffffffffffffff1673ffffffffffffffffffffffffffffffffffffffff168152602001908152602001600020549050919050565b6040518060400160405280600381526020017f44474c000000000000000000000000000000000000000000000000000000000081525081565b6000610a3b8260055461153690919063ffffffff16565b600581905550610a9382600260003373ffffffffffffffffffffffffffffffffffffffff1673ffffffffffffffffffffffffffffffffffffffff1681526020019081526020016000205461153690919063ffffffff16565b600260003373ffffffffffffffffffffffffffffffffffffffff1673ffffffffffffffffffffffffffffffffffffffff1681526020019081526020016000208190555060019050919050565b6006602052806000526040600020600091509050806000018054610b0290611b39565b80601f0160208091040260200160405190810160405280929190818152602001828054610b2e90611b39565b8015610b7b5780601f10610b5057610100808354040283529160200191610b7b565b820191906000526020600020905b815481529060010190602001808311610b5e57829003601f168201915b5050505050908060010154908060020160009054906101000a900473ffffffffffffffffffffffffffffffffffffffff16908060030160009054906101000a900473ffffffffffffffffffffffffffffffffffffffff16908060040154908060050160009054906101000a900460ff16908060060154905087565b6000600260003373ffffffffffffffffffffffffffffffffffffffff1673ffffffffffffffffffffffffffffffffffffffff16815260200190815260200160002054821115610c4457600080fd5b610c9682600260003373ffffffffffffffffffffffffffffffffffffffff1673ffffffffffffffffffffffffffffffffffffffff168152602001908152602001600020546114e990919063ffffffff16565b600260003373ffffffffffffffffffffffffffffffffffffffff1673ffffffffffffffffffffffffffffffffffffffff16815260200190815260200160002081905550610d2b82600260008673ffffffffffffffffffffffffffffffffffffffff1673ffffffffffffffffffffffffffffffffffffffff1681526020019081526020016000205461153690919063ffffffff16565b600260008573ffffffffffffffffffffffffffffffffffffffff1673ffffffffffffffffffffffffffffffffffffffff168152602001908152602001600020819055508273ffffffffffffffffffffffffffffffffffffffff163373ffffffffffffffffffffffffffffffffffffffff167fddf252ad1be2c89b69c2b068fc378daa952ba7f163c4a11628f55a4df523b3ef84604051610dcb9190611965565b60405180910390a36001905092915050565b336006600083815260200190815260200160002060030160006101000a81548173ffffffffffffffffffffffffffffffffffffffff021916908373ffffffffffffffffffffffffffffffffffffffff16021790555050565b803373ffffffffffffffffffffffffffffffffffffffff166006600083815260200190815260200160002060020160009054906101000a900473ffffffffffffffffffffffffffffffffffffffff1673ffffffffffffffffffffffffffffffffffffffff1614610ea457600080fd5b60016006600084815260200190815260200160002060050160006101000a81548160ff0219169083151502179055505050565b6040518060e001604052808481526020014281526020013373ffffffffffffffffffffffffffffffffffffffff168152602001600073ffffffffffffffffffffffffffffffffffffffff1681526020018381526020016000151581526020018281525060066000805481526020019081526020016000206000820151816000019080519060200190610f6a929190611588565b506020820151816001015560408201518160020160006101000a81548173ffffffffffffffffffffffffffffffffffffffff021916908373ffffffffffffffffffffffffffffffffffffffff16021790555060608201518160030160006101000a81548173ffffffffffffffffffffffffffffffffffffffff021916908373ffffffffffffffffffffffffffffffffffffffff1602179055506080820151816004015560a08201518160050160006101000a81548160ff02191690831515021790555060c082015181600601559050506007600054908060018154018082558091505060019003906000526020600020016000909190919091505560016000808282546110779190611a18565b92505081905550505050565b600080600460003373ffffffffffffffffffffffffffffffffffffffff1673ffffffffffffffffffffffffffffffffffffffff16815260200190815260200160002054116110d057600080fd5b611161600460003373ffffffffffffffffffffffffffffffffffffffff1673ffffffffffffffffffffffffffffffffffffffff16815260200190815260200160002054600260003373ffffffffffffffffffffffffffffffffffffffff1673ffffffffffffffffffffffffffffffffffffffff1681526020019081526020016000205461153690919063ffffffff16565b600260003373ffffffffffffffffffffffffffffffffffffffff1673ffffffffffffffffffffffffffffffffffffffff168152602001908152602001600020819055506000600460003373ffffffffffffffffffffffffffffffffffffffff1673ffffffffffffffffffffffffffffffffffffffff168152602001908152602001600020819055506001905090565b60005481565b6000600360008473ffffffffffffffffffffffffffffffffffffffff1673ffffffffffffffffffffffffffffffffffffffff16815260200190815260200160002060008373ffffffffffffffffffffffffffffffffffffffff1673ffffffffffffffffffffffffffffffffffffffff16815260200190815260200160002054905092915050565b600033600460008273ffffffffffffffffffffffffffffffffffffffff1673ffffffffffffffffffffffffffffffffffffffff168152602001908152602001600020546001546112cd9190611a6e565b600260008373ffffffffffffffffffffffffffffffffffffffff1673ffffffffffffffffffffffffffffffffffffffff16815260200190815260200160002054101561131857600080fd5b600154600460003373ffffffffffffffffffffffffffffffffffffffff1673ffffffffffffffffffffffffffffffffffffffff168152602001908152602001600020541061136557600080fd5b6000600460003373ffffffffffffffffffffffffffffffffffffffff1673ffffffffffffffffffffffffffffffffffffffff168152602001908152602001600020546001546113b49190611a6e565b905061140881600460003373ffffffffffffffffffffffffffffffffffffffff1673ffffffffffffffffffffffffffffffffffffffff1681526020019081526020016000205461153690919063ffffffff16565b600460003373ffffffffffffffffffffffffffffffffffffffff1673ffffffffffffffffffffffffffffffffffffffff1681526020019081526020016000208190555061149d81600260003373ffffffffffffffffffffffffffffffffffffffff1673ffffffffffffffffffffffffffffffffffffffff168152602001908152602001600020546114e990919063ffffffff16565b600260003373ffffffffffffffffffffffffffffffffffffffff1673ffffffffffffffffffffffffffffffffffffffff1681526020019081526020016000208190555060019250505090565b600082821115611522577f4e487b7100000000000000000000000000000000000000000000000000000000600052600160045260246000fd5b818361152e9190611a6e565b905092915050565b60008082846115459190611a18565b90508381101561157e577f4e487b7100000000000000000000000000000000000000000000000000000000600052600160045260246000fd5b8091505092915050565b82805461159490611b39565b90600052602060002090601f0160209004810192826115b657600085556115fd565b82601f106115cf57805160ff19168380011785556115fd565b828001600101855582156115fd579182015b828111156115fc5782518255916020019190600101906115e1565b5b50905061160a919061160e565b5090565b5b8082111561162757600081600090555060010161160f565b5090565b600061163e611639846119cc565b61199b565b90508281526020810184848401111561165657600080fd5b611661848285611af7565b509392505050565b60008135905061167881611c09565b92915050565b600082601f83011261168f57600080fd5b813561169f84826020860161162b565b91505092915050565b6000813590506116b781611c20565b92915050565b6000602082840312156116cf57600080fd5b60006116dd84828501611669565b91505092915050565b600080604083850312156116f957600080fd5b600061170785828601611669565b925050602061171885828601611669565b9150509250929050565b60008060006060848603121561173757600080fd5b600061174586828701611669565b935050602061175686828701611669565b9250506040611767868287016116a8565b9150509250925092565b6000806040838503121561178457600080fd5b600061179285828601611669565b92505060206117a3858286016116a8565b9150509250929050565b6000806000606084860312156117c257600080fd5b600084013567ffffffffffffffff8111156117dc57600080fd5b6117e88682870161167e565b93505060206117f9868287016116a8565b925050604061180a868287016116a8565b9150509250925092565b60006020828403121561182657600080fd5b6000611834848285016116a8565b91505092915050565b61184681611aa2565b82525050565b61185581611ab4565b82525050565b6000611866826119fc565b6118708185611a07565b9350611880818560208601611b06565b61188981611bf8565b840191505092915050565b61189d81611ae0565b82525050565b6118ac81611aea565b82525050565b60006020820190506118c7600083018461184c565b92915050565b600060208201905081810360008301526118e7818461185b565b905092915050565b600060e0820190508181036000830152611909818a61185b565b90506119186020830189611894565b611925604083018861183d565b611932606083018761183d565b61193f6080830186611894565b61194c60a083018561184c565b61195960c0830184611894565b98975050505050505050565b600060208201905061197a6000830184611894565b92915050565b600060208201905061199560008301846118a3565b92915050565b6000604051905081810181811067ffffffffffffffff821117156119c2576119c1611bc9565b5b8060405250919050565b600067ffffffffffffffff8211156119e7576119e6611bc9565b5b601f19601f8301169050602081019050919050565b600081519050919050565b600082825260208201905092915050565b6000611a2382611ae0565b9150611a2e83611ae0565b9250827fffffffffffffffffffffffffffffffffffffffffffffffffffffffffffffffff03821115611a6357611a62611b6b565b5b828201905092915050565b6000611a7982611ae0565b9150611a8483611ae0565b925082821015611a9757611a96611b6b565b5b828203905092915050565b6000611aad82611ac0565b9050919050565b60008115159050919050565b600073ffffffffffffffffffffffffffffffffffffffff82169050919050565b6000819050919050565b600060ff82169050919050565b82818337600083830152505050565b60005b83811015611b24578082015181840152602081019050611b09565b83811115611b33576000848401525b50505050565b60006002820490506001821680611b5157607f821691505b60208210811415611b6557611b64611b9a565b5b50919050565b7f4e487b7100000000000000000000000000000000000000000000000000000000600052601160045260246000fd5b7f4e487b7100000000000000000000000000000000000000000000000000000000600052602260045260246000fd5b7f4e487b7100000000000000000000000000000000000000000000000000000000600052604160045260246000fd5b6000601f19601f8301169050919050565b611c1281611aa2565b8114611c1d57600080fd5b50565b611c2981611ae0565b8114611c3457600080fd5b5056fea2646970667358221220ec7f00dbb29cebc8c825251c39224344dc663c1cb469caeac63a5a96c1c0b9fe64736f6c63430008000033",
  "immutableReferences": {},
  "source": "pragma solidity 0.8.0;\n\nimport \"./interfaces/IERC20.sol\";\n\ncontract DGlovo is IERC20{\n\n  uint public lastId;\n\n  struct Order {\n    string petition;\n    uint creationTime;\n    address requester;\n    address worker;\n    uint timeLimit;\n    bool completed;\n    uint price;\n  }\n\n  string public constant name = \"DGlovo\";\n  string public constant symbol = \"DGL\";\n  uint8 public constant decimals = 18;\n\n  uint256 public stakeAmount;\n\n  mapping(address => uint256) balances;\n\n  mapping(address => mapping (address => uint256)) allowed;\n\n  mapping(address => uint256) locked;\n\n  uint256 totalSupply_;\n\n  using SafeMath for uint256;\n\n  mapping(uint => Order) public orders;\n\n  uint[] public orderids;\n\n  // Constructor\n  constructor(uint256 total) {\n      lastId = 0;\n      stakeAmount = 10000000000000000000;\n      totalSupply_ = total;\n    \tbalances[msg.sender] = totalSupply_;\n  }\n\n  function totalSupply() public view virtual override returns (uint256) {\n  \treturn totalSupply_;\n  }\n\n  function balanceOf(address tokenOwner) public view virtual override returns (uint) {\n    return balances[tokenOwner] + locked[tokenOwner];\n  }\n\n  function transfer(address receiver, uint numTokens) public virtual override returns (bool) {\n    require(numTokens <= balances[msg.sender]);\n    balances[msg.sender] = balances[msg.sender].sub(numTokens);\n    balances[receiver] = balances[receiver].add(numTokens);\n    emit Transfer(msg.sender, receiver, numTokens);\n    return true;\n  }\n\n  function approve(address delegate, uint numTokens) public virtual override returns (bool) {\n    allowed[msg.sender][delegate] = numTokens;\n    Approval(msg.sender, delegate, numTokens);\n    return true;\n  }\n\n  function allowance(address owner, address delegate) public virtual override view returns (uint) {\n    return allowed[owner][delegate];\n  }\n\n  function transferFrom(address owner, address buyer, uint numTokens) public virtual override returns (bool) {\n    require(numTokens <= balances[owner]);\n    require(numTokens <= allowed[owner][msg.sender]);\n\n    balances[owner] = balances[owner].sub(numTokens);\n    allowed[owner][msg.sender] = allowed[owner][msg.sender].sub(numTokens);\n    balances[buyer] = balances[buyer].add(numTokens);\n    Transfer(owner, buyer, numTokens);\n    return true;\n  }\n\n  function lockStake() hasEnoughToStake(msg.sender) public returns (bool) {\n    require(locked[msg.sender] < stakeAmount);\n\n    uint quantity = stakeAmount - locked[msg.sender];\n    locked[msg.sender] = locked[msg.sender].add(quantity);\n    balances[msg.sender] = balances[msg.sender].sub(quantity);\n    return true;\n  }\n\n  function lockedAmountOf(address stakeOwner) public view virtual returns (uint) {\n    return locked[stakeOwner];\n  }\n\n  function unlockStake() public returns (bool) {\n    require(locked[msg.sender] > 0);\n\n    balances[msg.sender] = balances[msg.sender].add(locked[msg.sender]);\n    locked[msg.sender] = 0;\n    return true;\n  }\n\n  function mint(uint256 amount) public returns (bool) {\n    totalSupply_ = totalSupply_.add(amount);\n    balances[msg.sender] = balances[msg.sender].add(amount);\n    return true;\n  }\n\n  modifier isRequester(uint orderId) { require(orders[orderId].requester == msg.sender); _; }\n\n  modifier hasEnoughToStake(address stakeOwner) { require(balances[stakeOwner] >= (stakeAmount - locked[stakeOwner])); _; }\n\n  modifier isStaking(address stakeOwner) { require(locked[stakeOwner] >= stakeAmount); _; }\n\n  function createOrder(string memory petition, uint256 timeLimit, uint256 price) public {\n    orders[lastId] = Order({\n        petition: petition,\n        creationTime: block.timestamp,\n        requester: msg.sender,\n        worker: address(0),\n        timeLimit: timeLimit,\n        completed: false,\n        price: price\n      });\n\n    orderids.push(lastId);\n    lastId += 1;\n  }\n\n  function assignOrder(uint orderId) public {\n    orders[orderId].worker = msg.sender;\n    //TODO: pay some tokens\n  }\n\n  function completeOrder(uint orderId) isRequester(orderId) public {\n    orders[orderId].completed = true;\n    //TODO: return tokens to worker + payout\n  }\n}\n\nlibrary SafeMath {\n    function sub(uint256 a, uint256 b) internal pure returns (uint256) {\n      assert(b <= a);\n      return a - b;\n    }\n\n    function add(uint256 a, uint256 b) internal pure returns (uint256) {\n      uint256 c = a + b;\n      assert(c >= a);\n      return c;\n    }\n}\n",
  "sourcePath": "/home/guillem/Documents/projects/DGlovo/contracts/DGlovo.sol",
  "compiler": {
    "name": "solc",
    "version": "0.8.0+commit.c7dfd78e.Emscripten.clang"
  },
  "schemaVersion": "3.4.1",
  "updatedAt": "2021-06-29T09:48:57.180Z",
  "networkType": "ethereum",
  "devdoc": {
    "kind": "dev",
    "methods": {
      "totalSupply()": {
        "details": "Returns the amount of tokens in existence."
      }
    },
    "version": 1
  },
  "userdoc": {
    "kind": "user",
    "methods": {},
    "version": 1
  }
}